:020000040800F2
:1000000080040020A1010008AF010008B101000830
:10001000B3010008B5010008B701000800000000A6
:10002000000000000000000000000000B90100080E
:10003000BB01000800000000BD010008BF0100086E
:10004000C1010008C1010008C1010008C101000888
:10005000C1010008C1010008C1010008C101000878
:10006000C1010008C1010008F1010008C101000838
:10007000C1010008C1010008C1010008C101000858
:10008000C1010008C1010008C1010008C101000848
:10009000C1010008C1010008C1010008C101000838
:1000A000C1010008C1010008C1010008C101000828
:1000B000C1010008C1010008C1010008C101000818
:1000C000C1010008C1010008C1010008C101000808
:1000D000C1010008CD050008C1010008C1010008E8
:1000E000C1010008C1010008C1010008C1010008E8
:1000F000C1010008C1010008C1010008C1010008D8
:10010000C1010008C1010008C1010008C1010008C7
:10011000C1010008C1010008C1010008C1010008B7
:10012000C1010008C1010008C1010008C1010008A7
:10013000C1010008C1010008C1010008C101000897
:10014000C1010008C1010008C1010008C101000887
:10015000C1010008C1010008C1010008C101000877
:10016000C1010008C1010008C1010008C101000867
:10017000C1010008C1010008C10100080000000021
:10018000C1010008C1010008DFF810D000F01EF81E
:10019000004800472D090008AFF3008080040020CC
:1001A0000848016841F47001016007480047FEE714
:1001B000FEE7FEE7FEE7FEE7FEE7FEE7FEE7FEE717
:1001C000FEE7000088ED00E089010008064C074DBD
:1001D00006E0E06840F0010394E807009847103417
:1001E000AC42F6D3FFF7D4FF940B0008B40B000821
:1001F00010B50848006840F01000064908600A2061
:1002000000F05CFB0448006900F0100008B900F041
:100210005FF910BD143C0140001002400348006823
:1002200040F48060014908607047000000540040BD
:100230002A48006840F0020028490860274810302A
:10024000006840F400102549103108602448006817
:1002500020F47020224908600846006840F42020FD
:100260000860081D006840F44070091D08601C48C3
:100270000C30006840F4A02019490C31086018487F
:10028000406A40F04401164841621648006820F078
:100290000200144908600846006840F40040086005
:1002A0000846006820F400400860081D006840F01F
:1002B0002A00091D08600B481C30006840F0D2007D
:1002C00008491C3108602B20091D0860054800689A
:1002D00040F00100034908607047000030380240D8
:1002E00000040240005400400348006820F480608D
:1002F0000149086070470000005400404FF6FF714C
:1003000001E04A1E91B2074A126802F040020AB99F
:100310000029F6D119B1034A121F126800E0012228
:10032000D0B270471454004002460C4802604FF6A9
:10033000FF7101E0481E81B20848001D006800F00E
:10034000020008B90029F5D111B10448083000684D
:1003500009B9012070470020FCE70000105400405C
:1003600002464FF6FF7101E0481E81B20D48006859
:1003700000F0800008B90029F6D10A48001F026089
:100380004FF6FF7101E0481E81B20648006800F098
:10039000040008B90029F6D109B9012070470020EE
:1003A000FCE70000145400400B48006840F48070E3
:1003B000094A10604FF6FF7101E0481E81B20648FD
:1003C0001430006800F0010008B90029F5D109B91E
:1003D000012070470020FCE70054004003480068FB
:1003E00040F400700149086070470000005400406C
:1003F00010B53048006840F010002E4908602D48C4
:100400001430006840F480402A49143108602A48BA
:10041000006820F44070284908600846C06820F44D
:100420004070C8600846C06840F48070C8602348C7
:10043000C06840F004012148C1602148006840F0D4
:1004400010001F4908601E480C38006840F010007A
:100450001B490C390860032002461A4B19684FF6F5
:10046000FF031940184B0B4343EA0221154B196057
:1004700000BF0A200321002804DB0A07130E134AD9
:10048000135407E00A07140E0E4A0C3200F00F0353
:100490001B1FD45400BF0A20002809DB00F01F02F4
:1004A000012191404209920002F1E022C2F80011BC
:1004B00000BF10BD3038024000100240003801403B
:1004C0000C3C01400CED00E00000FA0500E400E007
:1004D0000348006880F4007001490860704700001C
:1004E000141402402020134908601348006820F4C7
:1004F0007010114908600846006840F4A0100860B8
:10050000081D006820F4C060091D0860081D00680F
:1005100020F47010091D08600846006840F420109F
:10052000086005481430006840F4C0600249143186
:1005300008607047303802400014024010B5FFF7E1
:1005400077FE10BD2DE9F04107460E461546FFF730
:100550002BFFA020FFF7E8FE3846FFF701FFFFF76B
:1005600023FFA120FFF7E0FE00240EE0681EA0425A
:1005700002DDFFF753FE03E0FFF7B6FEFFF72EFFA5
:10058000FFF7BCFE3055601CC4B2AC42EEDBBDE8E8
:10059000F0812DE9F04107460D461646FFF704FFAE
:1005A000A020FFF7C1FE3846FFF7DAFE002404E082
:1005B000285DFFF7D5FE601CC4B2B442F8DBFFF73C
:1005C0000DFF052000F07AF9BDE8F08108B510486C
:1005D000006800F0200058B10D484068C1B20D48D5
:1005E00002780078401C0B4B18700B4881540EE0C9
:1005F0000748006800F0100048B105480068009006
:1006000003484068009001200449087000BF08BDFD
:1006100000100140000000200C000020010000201C
:1006200010B55048006840F001004E4908604D4840
:100630001430006840F010004A49143108604A48FC
:10064000006820F44020484908600846006840F4EB
:10065000002008600846806820F440208860084632
:10066000806840F4002088600846406820F40070EC
:1006700048600846C06820F44020C8600846C0684A
:1006800040F48020C8600846406A40F07001364857
:100690004162006820F44010334908600846006851
:1006A00040F4001008600846C06820F44010C8609C
:1006B0000846C06840F48010C8600846406A40F4AC
:1006C000E0612948416240F2D92028498860002031
:1006D000C86008610846C06840F00800C860084665
:1006E000C06840F00400C8600846C06840F400508C
:1006F000C8600846C06840F02000C8600846C0686E
:1007000040F01000C86003200246194B19684FF6EC
:10071000FF031940174B0B4343EA0221144B1960A6
:1007200000BF25200221002804DB0A07130E124A0D
:10073000135407E00A07140E0D4A0C3200F00F03A1
:100740001B1FD45400BF2520002809DB00F01F0226
:10075000012191404209920002F1E022C2F8001109
:1007600000BF10BD303802400000024000100140C0
:100770000CED00E00000FA0500E400E00FB4054BCA
:1007800010B503A9044A029800F017F810BC5DF8F0
:1007900014FB0000190900080800002002E008C846
:1007A000121F08C1002AFAD170477047002001E0EB
:1007B00001C1121F002AFBD170472DE9F84F99465D
:1007C000924688460546002706E025280AD051466D
:1007D0004A4690476D1C7F1C28780028F5D1384682
:1007E000BDE8F88F002315F8011F18462E2915D1F2
:1007F00015F8011F04232A290DD06FF02F02297844
:10080000A1F13004092C09D800EB800002EB400074
:1008100008446D1CF3E758F8040B6D1C2A78002A75
:10082000DDD0632A07D0732A0FD0104651464A46BE
:1008300090477F1C2AE018F8042B8DF80020002137
:100840008DF801106E46012103E058F8046B4FF05B
:10085000FF315A074FF0000401D409E0641C8442C0
:100860000BDA8C42FADB325D002AF7D105E0641C1A
:100870008C42FCDB305D0028F9D1274404E016F8F7
:10088000010B51464A469047641EF8D26D1CA3E7FF
:100890004FF0E021096941F004014FF0E0221161BD
:1008A000054908601146096941F0010111616FF0C5
:1008B00070415161704700000400002010B50446EB
:1008C0004FF47A7104FB01F000F002F810BD000053
:1008D00070B5034600224FF0E02675690D4E36686C
:1008E00003FB06F44FF0E026B16910E04FF0E0267C
:1008F000B06988420BD0884202D20E1A324402E01C
:100900002E1A0E4432440146A24200D300E0EDE725
:1009100000BF70BD0400002038B504468DF800000B
:1009200069460320ABBE204638BD000007230222E3
:1009300008214FF4A87000F00DF9A820FFF7A8FFD8
:10094000FFF7D0FDFFF754FDFFF76AFEFFF7F6FD56
:100950000DA0FFF713FF15E01148007890B1114882
:10096000027811490020FFF714FE00200D4908709D
:100970000B4908700B220C49FFF7E4FD0A490BA054
:10098000FFF7FCFEE8E70000BBB6D3ADCAB9D3C39E
:10099000BBA8CABDC1F7CBAEB5C6210A0000000096
:1009A00001000020000000200C0000206275666637
:1009B00065723A25730A0000F0B504460D46002121
:1009C000002000265C4F3F6847F48037DFF868C19D
:1009D000CCF8007000E0491C574F3F6807F400371F
:1009E0001FB947F6FF77B942F5D347F6FF77B9420B
:1009F00001D101209EE0504F40373F6847F08057BB
:100A0000DFF834C10CF1400CCCF800704B4F3F685C
:100A100047F44047DFF824C1CCF80070464F3F1D33
:100A20003F6805F03F0C47EA0C07DFF80CC10CF1FA
:100A3000040CCCF8007067463F6847EA8417CCF88E
:100A4000007067463F684FF0010CCCEB520C47EA50
:100A50000C47DFF8E4C00CF1040CCCF800706746DA
:100A60003F6847EA0367CCF8007067463F6847F481
:100A70008007CCF800700CF104073F680CF1040CFF
:100A8000CCF8007067463F6847F4A057CCF8007078
:100A900067463F6847F40047CCF80070264F3F6830
:100AA00047F08077DFF890C0CCF80070002105E0B7
:100AB000491CB1F5001F01D3022005E01E4F3F681D
:100AC00007F00077002FF3D000BF1D4F3F6847F4B9
:100AD0008077DFF86CC0CCF8007067463F6847F459
:100AE0000077CCF8007067463F6847F48067CCF821
:100AF000007067463F6847F00507CCF800700E4F5E
:100B000008373F6847F00207DFF82CC00CF1080CEB
:100B1000CCF8007000210AE0074F08373F68C7F3A0
:100B20008106491CB1F5001F01D3042001E0032E0A
:100B3000F2D100BFF0BD000000380240007000405C
:100B4000003C02404A0A52020243014B1A607047BD
:100B500008ED00E0F0B504460D4616461F4601209C
:100B60000B49086000200A4908310860091F086025
:100B700007490C3108603B46324629462046FFF7BC
:100B80001BFF00214FF00060FFF7DCFFF0BD00000D
:100B900000380240B40B0008000000200C000000E8
:100BA0009C070008C00B00080C0000207404000023
:100BB000AC0700080000000000000000000000007A
:040000050800018965
:00000001FF
