:020000040800F2
:10000000D8040020A1010008AF010008B1010008D8
:10001000B3010008B5010008B701000800000000A6
:10002000000000000000000000000000B90100080E
:10003000BB01000800000000BD010008BF0100086E
:10004000C1010008C1010008C1010008C101000888
:10005000C1010008C1010008C1010008C101000878
:10006000C1010008C10100081D020008C10100080B
:10007000C1010008C1010008C1010008C101000858
:10008000C1010008C1010008C1010008C101000848
:10009000C1010008C1010008C1010008C101000838
:1000A000C1010008C1010008C1010008C101000828
:1000B000C1010008C1010008C1010008C101000818
:1000C000C1010008C1010008C1010008C101000808
:1000D000C10100085D020008C1010008C10100085B
:1000E000C1010008C1010008C1010008C1010008E8
:1000F000C1010008C1010008C1010008C1010008D8
:10010000C1010008C1010008C1010008C1010008C7
:10011000C1010008C1010008C1010008C1010008B7
:10012000C1010008C1010008C1010008C1010008A7
:10013000C1010008C1010008C1010008C101000897
:10014000C1010008C1010008C1010008C101000887
:10015000C1010008C1010008C1010008C101000877
:10016000C1010008C1010008C1010008C101000867
:10017000C1010008C1010008C10100080000000021
:10018000C1010008C1010008DFF810D000F034F808
:1001900000480047F5050008AFF30080D8040020B0
:1001A0000848016841F47001016007480047FEE714
:1001B000FEE7FEE7FEE7FEE7FEE7FEE7FEE7FEE717
:1001C000FEE7000088ED00E08901000830B50B462D
:1001D000014600202022012409E021FA02F59D4277
:1001E00005D303FA02F5491B04FA02F52844151E4B
:1001F000A2F10102F1DC30BD064C074D06E0E068DB
:1002000040F0010394E8070098471034AC42F6D35D
:10021000FFF7BEFF0C0800082C08000810B50848BE
:10022000006840F01000064908600A2000F0A6F9B6
:100230000448006900F0100008B900F005F810BD8E
:10024000143C0140001002400348006880F4007034
:100250000149086070470000141402401C490968F5
:1002600001F0200109B31A494968C8B2194909883F
:1002700001F40041C9B91749098801F4804161B10D
:100280000A2803D00021134A118020E0114909886F
:1002900041F400410F4A118019E00D2806D10D49A3
:1002A000098841F480410B4A118010E0094909880E
:1002B000C1F30D01084A505406490988491C054AF2
:1002C000118011460988C72901DD0021118070477E
:1002D00000100140080000200C0000203448006895
:1002E00040F001003249086031481430006840F0A5
:1002F00010002F49143108602E48006820F4402077
:100300002C4908600846006840F400200860084650
:10031000806820F4402088600846806840F400200F
:1003200088600846406820F4007048600846C0684D
:1003300020F44020C8600846C06840F48020C860AF
:100340000846406A40F070011A484162006820F493
:100350004010184908600846006840F40010086022
:100360000846C06820F44010C8600846C06840F4E1
:100370008010C8600846406A40F4E0610D48416260
:1003800040F2D9200C4988600020C8600861084606
:10039000C06840F00800C8600846C06840F004002B
:1003A000C8600846C06840F40050C860704700004C
:1003B0003038024000000240001001400FB4054BED
:1003C00010B503A9044A029800F018F810BC5DF8B3
:1003D00014FB0000D90500080400002002E008C852
:1003E000121F08C1002AFAD170477047002001E0AF
:1003F00001C1121F002AFBD1704700002DE9FF4FF9
:1004000089B09B460446002506E025280BD05A46B5
:100410000B999047641C6D1C20780028F5D10DB015
:100420002846BDE8F08F0027B8460122474900E082
:10043000074314F8013F203B02FA03F00842F7D1CA
:1004400020782E2819D114F8010F47F004072A2824
:100450000ED06FF02F022078A0F1300109290CD8BE
:1004600008EB880102EB410100EB0108641CF2E794
:100470000A98641C50F8048B0A9020780028CED08B
:10048000642808D0692806D075281ED05A460B99D2
:1004900090476D1C58E00A994FF00A0901C90A916A
:1004A000002802DA40422D2102E0390504D52B2133
:1004B0008DF82010012103E0F90704D02021F7E78F
:1004C0008A4608AE0DE00021FAE70A994FF00A09C2
:1004D00001C90A91F7E74946FFF778FE303106F87F
:1004E000011D0028F7D1ADEB060000F120097807C7
:1004F00001D44FF00108C84502DDA8EB090000E077
:1005000000208046002706E008A85A46C05D0B99E7
:1005100090476D1C7F1C5745F6DB04E030205A469F
:100520000B9990476D1CB8F10001A8F10108F5DCAA
:1005300005E016F8010B5A460B9990476D1CB9F16E
:100540000001A9F10109F4DC641C65E70928010038
:100550004FF0E021096941F004014FF0E022116100
:10056000054908601146096941F0010111616FF008
:1005700070415161704700000000002010B5044632
:100580004FF47A7104FB01F000F002F810BD000096
:1005900070B5034600224FF0E02675690D4E3668AF
:1005A00003FB06F44FF0E026B16910E04FF0E026BF
:1005B000B06988420BD0884202D20E1A324402E05F
:1005C0002E1A0E4432440146A24200D300E0EDE769
:1005D00000BF70BD0000002000BF054A126802F095
:1005E0004002002AF9D0C2B2014B5A6070470000A5
:1005F000001001400723022208214FF4A87000F0E8
:10060000E5F8A820FFF7A4FFFFF768FE6424214661
:1006100003A0FFF7D3FE04A0FFF7D0FE00BFFEE764
:1006200061203D2025640A0068656C6C6F770A00C4
:10063000F0B504460D460021002000265C4F3F68BF
:1006400047F48037DFF868C1CCF8007000E0491C3F
:10065000574F3F6807F400371FB947F6FF77B94295
:10066000F5D347F6FF77B94201D101209EE0504F04
:1006700040373F6847F08057DFF834C10CF1400C39
:10068000CCF800704B4F3F6847F44047DFF824C177
:10069000CCF80070464F3F1D3F6805F03F0C47EA1D
:1006A0000C07DFF80CC10CF1040CCCF800706746A5
:1006B0003F6847EA8417CCF8007067463F684FF000
:1006C000010CCCEB520C47EA0C47DFF8E4C00CF10C
:1006D000040CCCF8007067463F6847EA0367CCF823
:1006E000007067463F6847F48007CCF800700CF153
:1006F00004073F680CF1040CCCF8007067463F68B3
:1007000047F4A057CCF8007067463F6847F40047AD
:10071000CCF80070264F3F6847F08077DFF890C034
:10072000CCF80070002105E0491CB1F5001F01D391
:10073000022005E01E4F3F6807F00077002FF3D03E
:1007400000BF1D4F3F6847F48077DFF86CC0CCF8DE
:10075000007067463F6847F40077CCF80070674642
:100760003F6847F48067CCF8007067463F6847F001
:100770000507CCF800700E4F08373F6847F00207B6
:10078000DFF82CC00CF1080CCCF8007000210AE056
:10079000074F08373F68C7F38106491CB1F5001FB2
:1007A00001D3042001E0032EF2D100BFF0BD000010
:1007B0000038024000700040003C02404A0A5202E9
:1007C0000243014B1A60704708ED00E0F0B50446A3
:1007D0000D4616461F4601200B49086000200A49B5
:1007E00008310860091F086007490C3108603B4662
:1007F000324629462046FFF71BFF00214FF00060DC
:10080000FFF7DCFFF0BD0000003802402C080008B4
:10081000000000200C000000DC030008380800087D
:100820000C000020CC040000EC03000800000000D5
:080830000000000000000000C0
:040000050800018965
:00000001FF
