:020000040800F2
:1000000038050020290200083702000839020008DC
:100010003B0200083D0200083F020008000000000B
:100020000000000000000000000000004102000885
:1000300043020008000000004502000847020008D3
:100040004902000849020008490200084902000864
:100050004902000849020008490200084902000854
:10006000DD020008490200084902000849020008B0
:100070004902000849020008490200084902000834
:100080004902000849020008490200084902000824
:100090004902000849020008490200084902000814
:1000A0004902000849020008490200084902000804
:1000B00049020008490200084902000849020008F4
:1000C00049020008490200084902000849020008E4
:1000D00049020008610400084902000849020008BA
:1000E00049020008490200084902000849020008C4
:1000F00049020008490200084902000849020008B4
:1001000049020008490200084902000849020008A3
:100110004902000849020008490200084902000893
:100120004902000849020008490200084902000883
:100130004902000849020008490200084902000873
:100140004902000849020008490200084902000863
:100150004902000849020008490200084902000853
:100160004902000849020008490200084902000843
:100170004902000849020008490200080000000086
:10018000490200084902000800F002F800F03CF8BB
:100190000AA090E8000C82448344AAF10107DA45E2
:1001A00001D100F031F8AFF2090EBAE80F0013F0F8
:1001B000010F18BFFB1A43F001031847B8050000F0
:1001C000D8050000103A24BF78C878C1FAD8520781
:1001D00024BF30C830C144BF04680C6070470000C1
:1001E0000023002400250026103A28BF78C1FBD840
:1001F000520728BF30C148BF0B6070471FB500F0E1
:10020000B3FA1FBD10B510BD00F035F81146FFF769
:10021000F5FF00F0ABF900F053F803B4FFF7F2FF7D
:1002200003BC00F05DF900000B48016841F4700167
:1002300001600A480047FEE7FEE7FEE7FEE7FEE74B
:10024000FEE7FEE7FEE7FEE7FEE70000044805499B
:10025000034A054B7047000088ED00E08901000863
:100260003801002038050020380100207047704711
:10027000704770477047754600F02CF8AE46050091
:100280006946534620F00700854618B020B5FFF7B1
:10029000DDFFBDE820404FF000064FF000074FF0B3
:1002A00000084FF0000B21F00701AC46ACE8C00994
:1002B000ACE8C009ACE8C009ACE8C0098D4670479D
:1002C00010B50446AFF300802046BDE81040FFF7AC
:1002D000A4BF000000487047D400002010B50848B3
:1002E000006840F0040006490860142000F010F98E
:1002F0000448006900F0040008B100F07BF810BD6C
:10030000143C01400010024010B53348006840F032
:1003100010003149086030481430006840F48040D3
:100320002D49143108602D48006820F030002B4919
:1003300008600846C06820F03000C8600846C06801
:1003400040F02000C8602648006820F4706024490E
:1003500008600846006840F4806008602148006832
:1003600040F004001F4908601E480C38006840F047
:1003700004001C490C390860032002461A4B196816
:100380004FF6FF031940194B0B4343EA0221164B6A
:10039000196000BF08200321002804DB0A07130EA0
:1003A000134A135407E00A07140E0F4A0C3200F0E8
:1003B0000F031B1FD45400BF0820002809DB00F0E6
:1003C0001F02012191404209920002F1E022C2F88D
:1003D000001100BF10BD0000303802400010024084
:1003E000083801400C3C01400CED00E00000FA052B
:1003F00000E400E00348006880F4007001490860F0
:10040000704700001414024020201349086013486C
:10041000006820F47010114908600846006840F434
:10042000A0100860081D006820F4C060091D086065
:10043000081D006820F47010091D08600846006857
:1004400040F42010086005481430006840F4C06093
:1004500002491431086070473038024000140240ED
:100460001C49096801F0200109B31A494968C8B25A
:100470001949098801F40041C9B91749098801F4EB
:10048000804161B10A2803D00021134A118020E085
:100490001149098841F400410F4A118019E00D28E3
:1004A00006D10D49098841F480410B4A118010E0C2
:1004B00009490988C1F30D01084A505406490988C1
:1004C000491C054A118011460988C72901DD002110
:1004D0001180704700100140080000200C0000202F
:1004E00000BF70474FF0E021096941F004014FF06F
:1004F000E0221161054908601146096941F00101D6
:1005000011616FF0704151617047000000000020E0
:1005100010B504464FF47A7104FB01F000F002F8C4
:1005200010BD000070B5034600224FF0E02675694B
:100530000D4E366803FB06F44FF0E026B16910E07B
:100540004FF0E026B06988420BD0884202D20E1AE2
:10055000324402E02E1A0E4432440146A24200D335
:1005600000E0EDE700BF70BD00000020072302227D
:1005700008214FF4A87000F0D7F8A820FFF7B2FFC9
:10058000FFF742FFFFF7C0FE00BFFEE7F0B50446ED
:100590000D460021002000265C4F3F6847F480375D
:1005A000DFF868C1CCF8007000E0491C574F3F6885
:1005B00007F400371FB947F6FF77B942F5D347F67E
:1005C000FF77B94201D101209EE0504F40373F688C
:1005D00047F08057DFF834C10CF1400CCCF80070C4
:1005E0004B4F3F6847F44047DFF824C1CCF8007018
:1005F000464F3F1D3F6805F03F0C47EA0C07DFF808
:100600000CC10CF1040CCCF8007067463F6847EA57
:100610008417CCF8007067463F684FF0010CCCEBB4
:10062000520C47EA0C47DFF8E4C00CF1040CCCF89C
:10063000007067463F6847EA0367CCF8007067467A
:100640003F6847F48007CCF800700CF104073F685E
:100650000CF1040CCCF8007067463F6847F4A057D3
:10066000CCF8007067463F6847F40047CCF800704C
:10067000264F3F6847F08077DFF890C0CCF80070D5
:10068000002105E0491CB1F5001F01D3022005E05F
:100690001E4F3F6807F00077002FF3D000BF1D4FBB
:1006A0003F6847F48077DFF86CC0CCF8007067468D
:1006B0003F6847F40077CCF8007067463F6847F41E
:1006C0008067CCF8007067463F6847F00507CCF8B4
:1006D00000700E4F08373F6847F00207DFF82CC064
:1006E0000CF1080CCCF8007000210AE0074F083725
:1006F0003F68C7F38106491CB1F5001F01D30420F0
:1007000001E0032EF2D100BFF0BD0000003802402E
:1007100000700040003C02404A0A52020243014B72
:100720001A60704708ED00E0F0B504460D46164625
:100730001F4601200B49086000200A490831086063
:10074000091F086007490C3108603B4632462946BC
:100750002046FFF71BFF00214FF00060FFF7DCFF92
:10076000F0BD0000003802404FF04070E1EE100A8A
:100770007047000094070008000000200C000000F3
:10078000C4010008A00700080C0000202C05000090
:10079000E001000800000000000000000000000070
:040000050800018965
:00000001FF
