:020000040800F2
:10000000B0040020A101000817170008EB11000838
:1000100015170008AD02000835190008000000009F
:100020000000000000000000000000001B17000896
:10003000AF02000800000000191700081D17000893
:10004000BB010008BB010008BB010008BB010008A0
:10005000BB010008BB010008BB010008BB01000890
:10006000BB010008BB010008BB010008BB01000880
:10007000BB010008BB010008BB010008BB01000870
:10008000BB010008BB010008BB010008BB01000860
:10009000BB010008BB010008BB010008BB01000850
:1000A000BB010008BB010008BB010008BB01000840
:1000B000BB010008BB010008BB010008BB01000830
:1000C000BB010008BB010008BB010008BB01000820
:1000D000BB010008BB010008BB010008BB01000810
:1000E000BB010008BB010008BB010008BB01000800
:1000F000BB010008BB010008BB010008BB010008F0
:10010000BB010008BB010008BB010008BB010008DF
:10011000BB010008BB010008BB010008BB010008CF
:10012000BB010008BB010008BB010008BB010008BF
:10013000BB010008BB010008BB010008BB010008AF
:10014000BB010008BB010008BB010008BB0100089F
:10015000BB010008BB010008BB010008BB0100088F
:10016000BB010008BB010008BB010008BB0100087F
:10017000BB010008BB010008BB0100080000000033
:10018000BB010008BB010008DFF810D000F07CF8CC
:1001900000480047851A0008AFF30080B004002033
:1001A0000648804706480047FEE7FEE7FEE7FEE711
:1001B000FEE7FEE7FEE7FEE7FEE7FEE7B51700080D
:1001C000890100082DE9F05F0546002092469B4614
:1001D00088460646814640241BE02846414647465D
:1001E000224600F041F853465A46C01A914110D3B6
:1001F00011461846224600F028F82D1A67EB010830
:100200004F4622460120002100F01FF817EB00099D
:100210004E41201EA4F10104DFDC484631462A4647
:100220004346BDE8F09FD2B201E000F8012B491E21
:10023000FBD270470022F6E710B513460A46044683
:100240001946FFF7F0FF204610BD202A04DB203AB4
:1002500000FA02F1002070479140C2F1200320FA19
:1002600003F3194390407047202A04DB203A21FA17
:1002700002F00021704721FA02F3D040C2F12002BF
:100280009140084319467047064C074D06E0E06868
:1002900040F0010394E8070098471034AC42F6D3CD
:1002A000FFF776FF0C1C00082C1C0008FEE77047C7
:1002B00072B6FEE770B5044600F004F90546601C0E
:1002C00002D004480078044400F0FCF8401BA0422F
:1002D000FAD370BD000000202DE9F84FDFF8B8A177
:1002E000002201250AF1040B03264FF00F090BF140
:1002F000040E00BF0B6805FA02F42340A3426FD13D
:100300000F7907F00307012F01D0022F16D187685C
:100310004FEA420806FA08FC27EA0C07D1F80CC09D
:100320000CFA08FC4CEA070CC0F808C04768A74361
:100330000C79C4F3001494403C4344600C79E443CA
:10034000A4070AD0C4684FEA420C06FA0CF7BC4373
:100350008F6807FA0CF72743C7600C7904F0030491
:10036000022C12D1D40800EB840CDCF82040570793
:10037000FF0E09FA07F824EA0804D1F8108008FAF9
:1003800007F848EA0408CCF8208004684FEA420CD9
:1003900006FA0CF7BC430F7907F0030707FA0CF7CE
:1003A000274307604C68E40070D53C4C276847F44D
:1003B00080472760246822F0030704F480440094F7
:1003C000374C07EB040CDCF8084897074FEA17781E
:1003D00009FA08F7BC43334FB84202D1002724E0A2
:1003E00054E0314FB84201D101271EE02F4FB842EF
:1003F00001D1022719E02E4FB84201D1032714E0A2
:100400002C4FB84201D104270FE02B4FB84201D145
:1004100005270AE0294FB84201D1062705E0284FF9
:10042000B84201D1072700E0082707FA08F7274359
:10043000CCF80878DAF800405746D1F804C09C435D
:100440005FEACC3C00D51C433C60DBF800405F46D3
:10045000D1F804C09C435FEA8C3C00D51C433C604F
:10046000DEF800407746D1F804C09C435FEACC2C0C
:1004700000D51C433C60084F0C373C68D1F804C0E1
:100480009C435FEA8C2C00D51C433C60521C102A14
:10049000FFF430AFBDE8F88F003C01404438024023
:1004A0000030014000000240000402400008024009
:1004B000000C0240001002400014024000180240EC
:1004C000001C0240014880687047000000000020C6
:1004D00070B5040025D094F83D00002520B984F8BB
:1004E0003C50204600F04CFA242084F83D0020685F
:1004F000016821F0010101602068016841F40041B8
:1005000001602068016821F40041016000F092FB65
:100510004D4A6168914201D84C4900E04C498842FB
:1005200001D2012070BD4B492368B0FBF1F15E6838
:1005300026F03F060E435E606368934206D94FF48F
:10054000967359434FF47A73B1FBF3F12368491C56
:100550001E6A26F03F06314319626168914210D845
:100560004900401EB0FBF1F2521CC2F30B02042AF8
:1005700001D2042022E0B0FBF1F0401CC0F30B00DC
:100580001CE0A268F2B301EBC10303EB0116431EAA
:10059000B3FBF6F35B1C43F480431B0549D092B3D5
:1005A00001EBC10202EB0111401EB0FBF1F0401C57
:1005B000C0F30B0040F4804040F400402168CA6959
:1005C0004CF6FF739A431043C861D4E90710014306
:1005D0002068026822F0C00211430160D4E90301DF
:1005E00001432068826848F2FF339A4311438160D7
:1005F000D4E9050108432168CA6822F0FF021043CC
:10060000C86001E00EE016E02068016841F00101D9
:1006100001602564202084F83D00256384F83E5065
:10062000002070BD01EB4106431EB3FBF6F35B1CDB
:10063000B3E70120C2E701EB4101401EB0FBF1F03E
:10064000401CC0F30B00B7E7A086010080841E00A9
:1006500000093D0040420F002DE9FF4F83B09A464C
:10066000DDE9119793460446DDF84080FFF72AFF45
:10067000054694F83D00202870D1192301227149C4
:100680002046009500F0C2FE0028F5D194F83C0009
:10069000012863D0012084F83C0020680168C90764
:1006A00003D1016841F0010101602068016821F473
:1006B00000610160222084F83D00402084F83E0063
:1006C00000262664C4F82480A4F82A90608D208532
:1006D0005D48E062CDE9007553465A4620460499CC
:1006E00000F09CFD00287CD1208DD0B1012821D0C4
:1006F0000228206824D0416980690090208D032859
:1007000069D801282BD0514902283B464FF00002FE
:10071000009559D08846204600F078FE002860D128
:100720003CE02068416981690091016841F40071F1
:10073000016077E02068016821F480610160F0E7E2
:10074000016821F4806101602068016841F4006162
:100750000160206841698069009063E06FE02A468B
:100760003946204600F0D1FE98BB20680069616AD6
:1007700008704EE02068016841F400710160206853
:100780000069616A0870606A401C6062218D491EC0
:100790002185618D491E6185216838E020680168E6
:1007A00021F48061016020680069616A0870606AF4
:1007B000401C6062208D401E2085608D401E60853B
:1007C0003B46002241460095204600F01FFE00B93E
:1007D000D0E706E0FFE72A463946204600F095FEBE
:1007E00018B1012007B0BDE8F08F20680069616A88
:1007F0000870606A401C6062218D491E2185618DF0
:10080000491E618521684A69D24352070AD40969A1
:100810000170606A401C6062208D401E2085608DE2
:10082000401E6085208D00287FF468AF202084F86A
:100830003D0084F83E6084F83C600020D2E702204E
:10084000D0E70000020010000000FFFF04000100DC
:100850002DE9FF4F83B09A46DDE911979346044690
:10086000DDF84080FFF72EFE054694F83D00202875
:100870007FD11923012240492046009500F0C6FD92
:10088000002876D194F83C00012872D0012084F829
:100890003C0020680168C90703D1016841F00101EB
:1008A00001602068016821F400610160212084F862
:1008B0003D00402084F83E0000262664C4F82480D1
:1008C000A4F82A90608D20852C48E062CDE900755F
:1008D00053465A462046049900F01EFD70B930E098
:1008E0002A463946204600F043FE58B1206C0428C1
:1008F00004D12068016841F400710160012007B053
:10090000BDE8F08F606A216800780861606A401C69
:100910006062218D491E89B22185628D521E6285D9
:1009200022685369DB435B070BD469B1007810611F
:10093000606A401C6062208D401E2085608D401ED4
:100940006085208D0028CBD12A463946204600F00C
:1009500037FD0028CAD154F83D0B016841F40071FD
:100960000160202004F81E09E67766770020C6E7BC
:10097000FFE70220C3E70000020010000000FFFFB5
:1009800010B586B0044614216846FFF753FC13499E
:100990002068884220D112480021026842F00202F9
:1009A0000260006800F002000590C0200090122054
:1009B000CDE9010103200390042004906946094811
:1009C000FFF78AFC06481030016841F4001101600D
:1009D000006800F40010059006B010BD00540040FF
:1009E0003038024000040240024881680278114415
:1009F00081607047000000200B4810B5016841F489
:100A000000710160016841F480610160016841F496
:100A100080710160032000F061F80F2000F006F8FB
:100A200000F024F8002010BD003C024070B50D4DD0
:100A300004464FF47A712878B1FBF0F00A4909684E
:100A4000B1FBF0F000F0FCFA48B9102C07D20022FC
:100A50002146501E00F022F800206C6070BD01207D
:100A600070BD0000000000200C0000200A4808B5FE
:100A7000016841F480410160006800F4804000900A
:100A80000548001F016841F080510160006800F0D6
:100A90008050009008BD000044380240F0B40E4B76
:100AA0001B680C46C3F30223C3F10705042D00D9CC
:100AB0000425191D072901D2002300E0DB1E0126B1
:100AC00006FA05F1491E214099409E40761E1640C7
:100AD0003143F0BC00F040BF0CED00E0064900F0EF
:100AE000070208684FF6FF03184040EA0220034A55
:100AF00010430860704700000CED00E00000FA05AC
:100B00002DE9F0470E46050065D0DFF81481D8F8CE
:100B10000000F7B200F00700B04207D288F800707A
:100B2000D8F8000000F00700B04254D128683D4CCE
:100B3000810712D5400703D5206840F4E0502060BB
:100B40002878000703D5206840F4604020602068C2
:100B5000A96820F0F000084320602878C0072DD055
:100B6000304968680839012812D0022813D00328B8
:100B700011D00968890700292DDA216821F00301C5
:100B800001432160FFF79EFC814641F2883A0EE066
:100B900009688903EFE709688901ECE7FFF792FC30
:100BA000A0EB0901514502D90320BDE8F087206878
:100BB000696800F00C00B0EB810FEFD1D8F800109D
:100BC000404601F00701B14207D90770006800F004
:100BD0000700B04201D00120E7E72878400705D59B
:100BE0002068E96820F4E050084320602878000776
:100BF00006D52068296920F4604040EAC1002060E1
:100C000000F038F82168084AC1F30311515CC8406C
:100C10000649086006480068FFF708FF0020C4E79F
:100C2000003C024008380240F41B00080C00002081
:100C3000040000200448054900680968044AC1F31B
:100C40008221515CC84070470C00002008380240E7
:100C5000041C00080448054900680968044AC1F3F7
:100C60004231515CC84070470C00002008380240F7
:100C7000041C0008154810B5006810F00C02144858
:100C800013D04110042A0FD0082A0ED10F4C241F74
:100C90002268236802F03F025B0207D52068C0F398
:100CA0008810A0FB010106E0084610BD2168C1F3D1
:100CB0008811A1FB00010023FFF784FA2168C1F32A
:100CC0000141491C4900B0FBF1F010BD0838024059
:100CD0000024F4002DE9F84F04006ED02078DFF8EE
:100CE0004C93C007A9F104054AD009F1040001683A
:100CF000C1F38101012908D00068C0F381000228F6
:100D00000AD1D9F80000400206D52868800337D5FB
:100D100060680028E1D033E06068B0F5803F10D013
:100D2000B0F5A02F286810D020F480302860286803
:100D300020F4802028606068A8B1FFF7C3FB064656
:100D40000DE0286840F48030F4E740F4802028600B
:100D5000F7E700BFFFF7B6FB801B642873D828684D
:100D60008003F7D50CE0FFF7ADFB064605E000BFBA
:100D7000FFF7A8FB801B6428F0D828688003F7D40D
:100D80002078DFF8AC8280074FF0000A3ED5A748F4
:100D9000001D016811F00C0F08D00068C0F381003D
:100DA00002280BD1D9F80000400207D42868800738
:100DB00016D5E068012800D112E033E1E068B8B14F
:100DC0000120C8F80000FFF77DFB064605E000BFE4
:100DD000FFF778FB801B0228C0D828688007F7D56A
:100DE0002868216920F0F80040EAC10028600DE081
:100DF000C8F800A0FFF766FB064604E0FFF762FBB9
:100E0000801B02281FD828688007F7D420780007A5
:100E100022D5864F87486169703771B10121016021
:100E2000FFF750FB064604E0FFF74CFB801B02284F
:100E300009D838688007F7D50EE0C0F800A0FFF7A2
:100E400041FB064605E082E0FFF73CFB801B0228E1
:100E50007DD838688007F7D42078400768D5DFF858
:100E6000CCB100270BF13C0BDBF80000C0000BD429
:100E7000DBF8001041F08051CBF80010DBF80000E7
:100E8000012700F0805000906B4E3068C00510D4F0
:100E9000306840F480703060FFF714FB009005E08C
:100EA000FFF710FB0099401A022850D83068C0059F
:100EB000F6D55E4EA0686C3601280FD00528306844
:100EC00010D020F001003060306820F00400306065
:100ED000A068B8B1FFF7F6FA00900FE0306840F074
:100EE0000100F4E740F004003060F7E7FFF7EAFAAA
:100EF0000099411A41F28830814266D830688007F3
:100F0000F4D50EE0FFF7DEFA009007E0FFF7DAFA1B
:100F10000099411A41F28830814256D830688007E2
:100F2000F4D42FB1DBF8001021F08051CBF8001081
:100F3000A069C8B33D49091D0968C1F381010229AF
:100F40004AD00228504607D0C8F8600000E03CE0D4
:100F5000FFF7B8FA04463BE04746C8F86000FFF7E1
:100F6000B1FA064605E000BFFFF7ACFA801B022885
:100F70002BD828688001F7D4D4E907010843A16A77
:100F80002E4A490802EB0141626A41EA8211084394
:100F900094F82C1040EA0161C9F80010012038666D
:100FA000FFF790FA044606E03EE000BFFFF78AFA3A
:100FB000001B022809D828688001F7D534E000BF5B
:100FC000FFF780FA001B022802D90320BDE8F88F42
:100FD00028688001F4D427E00128F7D0D9F8000070
:100FE000E26900F4800191421CD1226A00F03F01C5
:100FF000914217D147F6C071626A0140B1EB821F7E
:1010000010D1A26A4FF0FF3300F4403103EB5202DB
:10101000B1EB024F06D194F82C1000F07060B0EBE9
:10102000016F01D00120D1E70020CFE70438024052
:1010300000004742800E4742007000400000FFFF62
:1010400010B5401EB0F1807F01D3012010BD4FF0DC
:10105000E02460610F21601700F07EFC0020A06199
:1010600007202061002010BD70B5040004D094F862
:101070003D00002510B106E0012070BD84F83C5011
:10108000204600F023F8242084F83D002068C16841
:1010900021F40051C160204600F094FB20680169F2
:1010A00021F4904101612068416921F02A014161E8
:1010B0002068C16841F40051C1602564202084F893
:1010C0003D0084F83E00002070BD000010B586B0E1
:1010D000044614216846FFF7ADF814492068884299
:1010E00021D113480021026842F01002026000681A
:1010F00000F0100005900E481438026842F001021A
:101100000260006800F0010005904FF4C06000909C
:101110000220CDE9010103200390072004906946D5
:101120000448FFF7D9F806B010BD000000100140D8
:1011300044380240000002402DE9F843044690F88C
:101140003D001F4616460D4620284CD1C5B1BEB104
:1011500094F83C00012846D0012084F83C004FF070
:101160000008C4F84080212084F83D00FFF7AAF968
:10117000A6848146E684A068B0F5805F03D004E0D1
:101180000120BDE8F883206928B12E465FF00005F4
:1011900084F83C800EE00026FAE78021204600F02B
:1011A00097FBA0B9AEB116F8010B21684860E08C3E
:1011B000401EE084E08C4B464FF000020097002870
:1011C000EBD14FF04001204600F082FB30B103200C
:1011D000D7E735F8020BC0F30800E6E7202084F8D3
:1011E0003D000020CDE70220CBE7FEE701684A6919
:1011F000D24352050FD46FF480624A61002140F857
:10120000301F202242738173026942F0040202619E
:101210000173012070470020704700002DE9F84F4E
:101220000446006889460B9D01689846174641F4BC
:10123000806101602068016841F48071016000955F
:101240004FF0011B0022594620460A9B00F0DEF8B1
:101250004FF4007A40B120680068C00501D5C4F899
:1012600040A00320BDE8F88F216809F0FE00086166
:101270002B46284920460A9A00F0FCF8F0BB20686B
:101280004169806900902A4620460A9900F070F969
:1012900040B1206C04283AD12068016841F4007103
:1012A000016034E0FEB2B8F1010F09D02168380ABC
:1012B00008612A4620460A9900F05AF90028E8D128
:1012C000206806612A4620460A9900F051F9002854
:1012D000DFD12068016841F480710160009500222F
:1012E000594620460A9B00F091F80028B3D12168A6
:1012F00009F0FF0040F00100086100E007E02B4624
:10130000044920460A9A00F0B5F80028AAD0012026
:10131000A8E70000020001002DE9F8430446006838
:101320000D46DDE9089701689846164641F480713C
:1013300001604B4600224FF001112046009700F05B
:1013400065F848B120680068C00502D54FF4007008
:1013500020640320BDE8F883216805F0FE000861E1
:101360003B464A461549204600F084F888B9206873
:101370004169806900903A464946204600F0F8F8F5
:1013800048B1206C042804D12068016841F4007140
:1013900001600120DEE7F5B2B8F1010F09D0216844
:1013A000300A08613A464946204600F0E1F8002834
:1013B000E7D1206805610020CCE7000002000100B1
:1013C00070B516460D4604460DE02046FFF70EFFA9
:1013D00008B1012070BD681C05D0FFF773F8801BB1
:1013E000A84207D835B120684069C0434007ECD413
:1013F000002070BD002044F8300F20216173A073DD
:10140000216941F0200121612073E2E72DE9F047D5
:101410001E4690460D460446C1F30747DDF820906E
:1014200008E0701C06D0FFF74DF8A0EB0900B042B1
:101430000FD876B12068012F18D0806925EA000006
:101440000004000C14D000214145EAD00020BDE882
:10145000F087002044F8300F20216173A0732169C8
:1014600041F02001216120730120F0E74069E5E7A8
:101470000121E9E72DE9F0479A4691460E460446D8
:1014800000254FF02008C1F3074725E02068406998
:10149000C043400514D42068016841F40071016024
:1014A00021686FF480604861256384F83D8084F88A
:1014B0003E50206C40F00400206484F83C501FE053
:1014C000B9F1FF3F08D0FEF7FDFFA0EB0A01494547
:1014D0000CD8B9F1000F09D02068012F13D0806912
:1014E00026EA00000004000C0BD0CFE744F8305F80
:1014F00084F80D80A573206940F0200020612573D9
:101500000120BDE8F0874069EAE72DE9F0410025B8
:1015100090460E460446202717E04069C043C006A7
:101520000CD454F8301B6FF01000486144F8105987
:101530006777A577206A2062257717E0FEF7C2FF5C
:10154000A0EB0800B04208D83EB120684169C94309
:101550004906E2D40020BDE8F08144F8305F6773AB
:10156000A573206940F02000206125730120F2E777
:1015700070B516460D4604460DE02046FFF736FED0
:1015800008B1012070BD681C05D0FEF79BFF801BD1
:10159000A84207D835B120684069C0430006ECD4A2
:1015A000002070BD002044F8300F20216173A0732B
:1015B000216941F0200121612073E2E71FB54FF45A
:1015C000FA63012203A98DE80E0013460246A12109
:1015D0000348FFF741F89DF80C0004B010BD00006F
:1015E000140000200EB54FF4FA638DE80E00024699
:1015F0000123A1210148FFF72FF80EBD14000020A0
:1016000003B583B04FF4FA63012204A98DE80E00FC
:1016100013460246A0210448FFF71AF90520FEF7F9
:1016200049FE05B000BD0000140000200EB54FF4C7
:101630007A738DE80E0002460123A0210348FFF7CC
:1016400007F9BDE80E400520FEF734BE1400002067
:10165000114808B5016841F004010160016801F01A
:1016600004010091016841F080010160016801F00E
:1016700080010091016841F001010160016801F001
:1016800001010091016841F002010160006800F071
:101690000200009008BD0000303802400D4810B52F
:1016A0000B4901600C49416000214FF48042816088
:1016B000C0E9031241618161C1610162FEF708FF67
:1016C000002803D0BDE81040FEF7F2BD10BD0000B9
:1016D0000054004014000020A08601000C4810B502
:1016E0000A4901604FF4E1314160002181600C2220
:1016F000C160C0E904128161C161FFF7B5FC002837
:1017000003D0BDE81040FEF7D3BD10BD001001406E
:1017100068000020FEE7FEE770477047FFF764B9F6
:1017200030B593B030216846FEF784FD14210CA833
:10173000FEF780FD1D480025016841F080510160E1
:10174000006800F0805011901948016841F4804110
:1017500001600068022400F4804011900120009094
:10176000000401908001CDE9064008AA0420A821C8
:1017700082E813000B906846FFF7ACFA08B172B626
:10178000FEE70CA90F2081E831004FF4A0500F9024
:101790004FF48050109005210CA8FFF7B1F90028F4
:1017A00001D072B6FEE713B030BD000040380240F1
:1017B000007000400248016841F470010160704708
:1017C00088ED00E070B5044600680169E26821F424
:1017D0004051114301612169A068E26908436169D0
:1017E000114308432168CA6849F20C639A430243D3
:1017F000CA6020684169A26921F4407111434161C6
:1018000031492068884202D03049884202D1FFF72E
:1018100021FA01E0FFF70EFAE2690023192164259D
:101820003226B2F5004F626828D0A0FB0101930F69
:101830009200FEF7C7FC0146B0FBF5F06FF018020E
:10184000504301EB800006EB0010B0FBF5F000F018
:10185000F002B1FBF5F002EB0012B1FBF5F06FF016
:101860001803584301EB800006EB0010B0FBF5F0C5
:1018700000F00F0021681044886070BDA0FB0101DA
:1018800092185B41FEF79EFC0146B0FBF5F00201A9
:10189000B1FBF5F06FF01803584301EB800006EB45
:1018A000C000B0FBF5F000F0F80002EB4002B1FB25
:1018B000F5F0584301EB800006EBC000B0FBF5F0FB
:1018C00000F00700D6E700000010014000140140BE
:1018D0002DE9F041984617460E460446069D1DE048
:1018E000681C1BD02DB1FEF7EDFDA0EB0800A8424F
:1018F00014D92068C16821F4D071C16020684169A1
:1019000021F001014161202084F83D0084F83E006F
:10191000002084F83C000320BDE8F08120680068C6
:1019200036EA000004D00020B842D9D00020F3E706
:101930000120F9E7FEE700000FB4054B10B503A93D
:10194000044A029800F027F810BC5DF814FB000070
:101950006D1A0008100000200907090E002804DB9A
:1019600000F1E02080F80014704700F00F0000F153
:10197000E02080F8141D704702E008C8121F08C15B
:10198000002AFAD170477047002001E001C1121F00
:10199000002AFBD170472DE9F84F994692468846B8
:1019A0000546002706E025280AD051464A469047BA
:1019B0006D1C7F1C28780028F5D13846BDE8F88FCB
:1019C000002315F8011F18462E2915D115F8011FFF
:1019D00004232A290DD06FF02F022978A1F13004B9
:1019E000092C09D800EB800002EB400008446D1C74
:1019F000F3E758F8040B6D1C2A78002ADDD0632A1F
:101A000007D0732A0FD0104651464A4690477F1C94
:101A10002AE018F8042B8DF8002000218DF8011021
:101A20006E46012103E058F8046B4FF0FF315A076E
:101A30004FF0000401D409E0641C84420BDA8C42AC
:101A4000FADB325D002AF7D105E0641C8C42FCDB36
:101A5000305D0028F9D1274404E016F8010B514607
:101A60004A469047641EF8D26D1CA3E713B54FF4A5
:101A70007A73012269460248FFF75EFB00981CBD9D
:101A8000680000209AB0FEF7B7FFFFF749FEFFF7A6
:101A9000DFFDFFF703FEFFF721FE2EA0FFF74CFF4F
:101AA00061210020FFF7ACFD62210120FFF7A8FDB6
:101AB00063210220FFF7A4FD64210320FFF7A0FDAE
:101AC0000020FFF77BFD06460120FFF777FD054666
:101AD0000320FFF773FD04460220FFF76FFD00901F
:101AE00023462A46314620A0FFF726FF07222AA1D7
:101AF0000020FFF79BFD642101A8FEF79BFB072256
:101B000001A90020FFF76EFD01A925A0FFF714FF32
:101B1000082227A10020FFF789FD0D2201A900203E
:101B2000FFF760FD01A926A0FFF706FF642101A8C9
:101B3000FEF780FB102226A10020FFF777FD102280
:101B400001A90020FFF74EFD01A926A0FFF7F4FE32
:101B5000FEE70000494943C8EDBCFEC4A3C4E2BF90
:101B6000AACABC6161210A006279746531203D20F6
:101B7000256309206279746532203D2025630920A0
:101B80006279746533203D2025630920627974658C
:101B900034203D2025630A0031323334356166003C
:101BA00062756666657231203D2025730A0000006B
:101BB00031323334353637383930616263000000F2
:101BC00062756666657232203D2025730A0000004A
:101BD00031323334353637383930616263646566A3
:101BE0000000000062756666657233203D20257333
:101BF0000A000000000000000000000001020304D1
:101C00000607080900000000010203042C1C00085C
:101C1000000000201400000078190008401C000893
:101C2000140000209C040000881900080100000036
:101C300010000000000000000024F400000000007C
:040000050800018965
:00000001FF
