:020000040800F2
:10000000D8040020A1010008AF010008B1010008D8
:10001000B3010008B5010008B701000800000000A6
:10002000000000000000000000000000B90100080E
:10003000BB01000800000000BD010008BF0100086E
:10004000C1010008C1010008C1010008C101000888
:10005000C1010008C1010008C1010008C101000878
:10006000C1010008C101000815020008C101000813
:10007000C1010008C1010008C1010008C101000858
:10008000C1010008C1010008C1010008C101000848
:10009000C1010008C1010008C1010008C101000838
:1000A000C1010008C1010008C1010008C101000828
:1000B000C1010008C1010008C1010008C101000818
:1000C000C1010008C1010008C1010008C101000808
:1000D000C101000811050008C1010008C1010008A4
:1000E000C1010008C1010008C1010008C1010008E8
:1000F000C1010008C1010008C1010008C1010008D8
:10010000C1010008C1010008C1010008C1010008C7
:10011000C1010008C1010008C1010008C1010008B7
:10012000C1010008C1010008C1010008C1010008A7
:10013000C1010008C1010008C1010008C101000897
:10014000C1010008C1010008C1010008C101000887
:10015000C1010008C1010008C1010008C101000877
:10016000C1010008C1010008C1010008C101000867
:10017000C1010008C1010008C10100080000000021
:10018000C1010008C1010008DFF810D000F030F80C
:100190000048004729080008AFF30080D804002079
:1001A0000848016841F47001016007480047FEE714
:1001B000FEE7FEE7FEE7FEE7FEE7FEE7FEE7FEE717
:1001C000FEE7000088ED00E089010008D2B201E0FE
:1001D00000F8012B491EFBD270470022F6E710B54C
:1001E00013460A4604461946FFF7F0FF204610BDA5
:1001F000064C074D06E0E06840F0010394E8070074
:1002000098471034AC42F6D3FFF7C2FF7C0B0008CE
:100210009C0B000810B50848006840F01000064923
:1002200008600A2000F0C4FA0448006900F01000D9
:1002300008B900F0EFF810BD143C01400010024076
:100240000348006840F4806001490860704700007E
:10025000005400402A48006840F002002849086025
:1002600027481030006840F400102549103108601C
:100270002448006820F4702022490860084600687D
:1002800040F420200860081D006840F44070091DFB
:1002900008601C480C30006840F4A02019490C315B
:1002A00008601848406A40F0440116484162164808
:1002B000006820F00200144908600846006840F415
:1002C000004008600846006820F400400860081DEF
:1002D000006840F02A00091D08600B481C300068C7
:1002E00040F0D20008491C3108602B20091D08602D
:1002F0000548006840F001000349086070470000AD
:1003000030380240000402400054004003480068B6
:1003100020F48060014908607047000000540040EC
:100320004FF6FF7101E04A1E91B2074A126802F0CF
:1003300040020AB90029F6D119B1034A121F126806
:1003400000E00122D0B270471454004002460C482D
:1003500002604FF6FF7101E0481E81B20848001D9F
:10036000006800F0020008B90029F5D111B1044875
:100370000830006809B9012070470020FCE7000040
:100380001054004002464FF6FF7101E0481E81B252
:100390000D48006800F0800008B90029F6D10A482D
:1003A000001F02604FF6FF7101E0481E81B206484F
:1003B000006800F0040008B90029F6D109B901204D
:1003C00070470020FCE70000145400400B48006810
:1003D00040F48070094A10604FF6FF7101E0481E3A
:1003E00081B206481430006800F0010008B9002905
:1003F000F5D109B9012070470020FCE70054004006
:100400000348006840F4007001490860704700002C
:10041000005400400348006880F4007001490860FF
:10042000704700001414024010B5FFF713FF10BD11
:1004300070B50446FFF7CAFFA020FFF787FF2046EC
:10044000FFF7A0FFFFF7C2FFA120FFF77FFFFFF735
:100450005DFFFFF7D5FFFFF763FF0546284670BD38
:100460002DE9F04107460E461546FFF7AFFFA020E5
:10047000FFF76CFF3846FFF785FFFFF7A7FFA120C6
:10048000FFF764FF00240EE0681EA04202DDFFF7C4
:10049000D7FE03E0FFF73AFFFFF7B2FFFFF740FF99
:1004A0003055601CC4B2AC42EEDBBDE8F08170B5E3
:1004B00005460C46FFF78AFFA020FFF747FF2846B6
:1004C000FFF760FF2046FFF75DFFFFF799FF05206C
:1004D00000F06EF970BD2DE9F04107460D46164655
:1004E000FFF774FFA020FFF731FF3846FFF74AFF00
:1004F000002404E0285DFFF745FF601CC4B2B4424D
:10050000F8DBFFF77DFF052000F052F9BDE8F08130
:100510001C49096801F0200109B31A494968C8B2A9
:100520001949098801F40041C9B91749098801F43A
:10053000804161B10A2803D00021134A118020E0D4
:100540001149098841F400410F4A118019E00D2832
:1005500006D10D49098841F480410B4A118010E011
:1005600009490988C1F30D01084A50540649098810
:10057000491C054A118011460988C72901DD00215F
:100580001180704700100140080000200C0000207E
:100590003448006840F001003249086031481430A6
:1005A000006840F010002F49143108602E480068A0
:1005B00020F440202C4908600846006840F40020E0
:1005C00008600846806820F44020886008468068FB
:1005D00040F4002088600846406820F400704860BD
:1005E0000846C06820F44020C8600846C06840F44F
:1005F0008020C8600846406A40F070011A48416295
:10060000006820F44010184908600846006840F46B
:10061000001008600846C06820F44010C860084612
:10062000C06840F48010C8600846406A40F4E06149
:100630000D48416240F2D9200C4988600020C86012
:1006400008610846C06840F00800C8600846C068F5
:1006500040F00400C8600846C06840F40050C8601C
:100660007047000030380240000002400010014096
:100670000FB4054B10B503A9044A029800F017F80F
:1006800010BC5DF814FB00000D08000804000020F9
:1006900002E008C8121F08C1002AFAD1704770474B
:1006A000002001E001C1121F002AFBD170472DE993
:1006B000F84F9946924688460546002706E02528C9
:1006C0000AD051464A4690476D1C7F1C2878002866
:1006D000F5D13846BDE8F88F002315F8011F1846FC
:1006E0002E2915D115F8011F04232A290DD06FF0EA
:1006F0002F022978A1F13004092C09D800EB8000E1
:1007000002EB400008446D1CF3E758F8040B6D1C25
:100710002A78002ADDD0632A07D0732A0FD010462A
:1007200051464A4690477F1C2AE018F8042B8DF862
:10073000002000218DF801106E46012103E058F8D9
:10074000046B4FF0FF315A074FF0000401D409E069
:10075000641C84420BDA8C42FADB325D002AF7D14A
:1007600005E0641C8C42FCDB305D0028F9D1274495
:1007700004E016F8010B51464A469047641EF8D231
:100780006D1CA3E74FF0E021096941F004014FF02F
:10079000E0221161054908601146096941F0010133
:1007A00011616FF07041516170470000000000203E
:1007B00010B504464FF47A7104FB01F000F002F822
:1007C00010BD000070B5034600224FF0E0267569A9
:1007D0000D4E366803FB06F44FF0E026B16910E0D9
:1007E0004FF0E026B06988420BD0884202D20E1A40
:1007F000324402E02E1A0E4432440146A24200D393
:1008000000E0EDE700BF70BD0000002000BF054A1A
:10081000126802F04002002AF9D0C2B2014B5A60BD
:1008200070470000001001409AB0072302220821FF
:100830004FF4A87000F082F9A820FFF7A3FFFFF79C
:10084000A7FEFFF7F1FD2FA0FFF712FF61210020A7
:10085000FFF72DFE62210120FFF729FE6321022010
:10086000FFF725FE64210320FFF721FE0020FFF79C
:10087000DFFD05460120FFF7DBFD06460320FFF7FD
:10088000D7FD07460220FFF7D3FD04463B4632461C
:10089000294621A00094FFF7EBFE07222AA10020A1
:1008A000FFF719FE642101A8FFF797FC072201A9B1
:1008B0000020FFF7D5FD01A925A0FFF7D9FE0822EA
:1008C00027A10020FFF707FE082201A90020FFF75B
:1008D000C7FD01A925A0FFF7CBFE642101A8FFF702
:1008E0007CFC102225A10020FFF7F5FD102201A9B4
:1008F0000020FFF7B5FD01A925A0FFF7B9FE00BF55
:10090000FEE70000494943C8EDBCFEC4A3C4E2BFF2
:10091000AACABC210A0000006279746531203D201A
:10092000256309206279746532203D202563092002
:100930006279746533203D202563092062797465EE
:1009400034203D2025630A0031323334356166009E
:1009500062756666657231203D2025730A000000CD
:100960003132333435363738000000006275666640
:10097000657232203D2025730A0000003132333485
:1009800035363738393061626364656600000000CF
:1009900062756666657233203D2025730A0000008B
:1009A000F0B504460D460021002000265C4F3F684C
:1009B00047F48037DFF868C1CCF8007000E0491CCC
:1009C000574F3F6807F400371FB947F6FF77B94222
:1009D000F5D347F6FF77B94201D101209EE0504F91
:1009E00040373F6847F08057DFF834C10CF1400CC6
:1009F000CCF800704B4F3F6847F44047DFF824C104
:100A0000CCF80070464F3F1D3F6805F03F0C47EAA9
:100A10000C07DFF80CC10CF1040CCCF80070674631
:100A20003F6847EA8417CCF8007067463F684FF08C
:100A3000010CCCEB520C47EA0C47DFF8E4C00CF198
:100A4000040CCCF8007067463F6847EA0367CCF8AF
:100A5000007067463F6847F48007CCF800700CF1DF
:100A600004073F680CF1040CCCF8007067463F683F
:100A700047F4A057CCF8007067463F6847F400473A
:100A8000CCF80070264F3F6847F08077DFF890C0C1
:100A9000CCF80070002105E0491CB1F5001F01D31E
:100AA000022005E01E4F3F6807F00077002FF3D0CB
:100AB00000BF1D4F3F6847F48077DFF86CC0CCF86B
:100AC000007067463F6847F40077CCF800706746CF
:100AD0003F6847F48067CCF8007067463F6847F08E
:100AE0000507CCF800700E4F08373F6847F0020743
:100AF000DFF82CC00CF1080CCCF8007000210AE0E3
:100B0000074F08373F68C7F38106491CB1F5001F3E
:100B100001D3042001E0032EF2D100BFF0BD00009C
:100B20000038024000700040003C02404A0A520275
:100B30000243014B1A60704708ED00E0F0B504462F
:100B40000D4616461F4601200B49086000200A4941
:100B500008310860091F086007490C3108603B46EE
:100B6000324629462046FFF71BFF00214FF0006068
:100B7000FFF7DCFFF0BD0000003802409C0B0008CE
:100B8000000000200C00000090060008A80B0008E0
:100B90000C000020CC040000A006000800000000AB
:080BA00000000000000000004D
:040000050800018965
:00000001FF
