:020000040800F2
:1000000038050020290200083702000839020008DC
:100010003B0200083D0200083F020008000000000B
:100020000000000000000000000000004102000885
:1000300043020008000000004502000847020008D3
:100040004902000849020008490200084902000864
:100050004902000849020008490200084902000854
:100060004902000849020008DD02000849020008B0
:100070004902000849020008490200084902000834
:100080004902000849020008490200084902000824
:100090004902000849020008490200084902000814
:1000A0004902000849020008490200084902000804
:1000B00049020008490200084902000849020008F4
:1000C00049020008490200084902000849020008E4
:1000D000490200081D0300084902000849020008FF
:1000E00049020008490200084902000849020008C4
:1000F00049020008490200084902000849020008B4
:1001000049020008490200084902000849020008A3
:100110004902000849020008490200084902000893
:100120004902000849020008490200084902000883
:100130004902000849020008490200084902000873
:100140004902000849020008490200084902000863
:100150004902000849020008490200084902000853
:100160004902000849020008490200084902000843
:100170004902000849020008490200080000000086
:10018000490200084902000800F002F800F03CF8BB
:100190000AA090E8000C82448344AAF10107DA45E2
:1001A00001D100F031F8AFF2090EBAE80F0013F0F8
:1001B000010F18BFFB1A43F001031847A805000000
:1001C000C8050000103A24BF78C878C1FAD8520791
:1001D00024BF30C830C144BF04680C6070470000C1
:1001E0000023002400250026103A28BF78C1FBD840
:1001F000520728BF30C148BF0B6070471FB500F0E1
:10020000ABFA1FBD10B510BD00F035F81146FFF771
:10021000F5FF00F093F900F053F803B4FFF7F2FF95
:1002200003BC00F045F900000B48016841F470017F
:1002300001600A480047FEE7FEE7FEE7FEE7FEE74B
:10024000FEE7FEE7FEE7FEE7FEE70000044805499B
:10025000034A054B7047000088ED00E08901000863
:100260003801002038050020380100207047704711
:10027000704770477047754600F02CF8AE46050091
:100280006946534620F00700854618B020B5FFF7B1
:10029000DDFFBDE820404FF000064FF000074FF0B3
:1002A00000084FF0000B21F00701AC46ACE8C00994
:1002B000ACE8C009ACE8C009ACE8C0098D4670479D
:1002C00010B50446AFF300802046BDE81040FFF7AC
:1002D000A4BF000000487047D400002010B50848B3
:1002E000006840F01000064908600A2000F0F8F8A5
:1002F0000448006900F0100008B900F005F810BDCE
:10030000143C0140001002400348006880F4007073
:100310000149086070470000141402401C49096834
:1003200001F0200109B31A494968C8B2194909887E
:1003300001F40041C9B91749098801F4804161B14C
:100340000A2803D00021134A118020E011490988AE
:1003500041F400410F4A118019E00D2806D10D49E2
:10036000098841F480410B4A118010E0094909884D
:10037000C1F30D01084A505406490988491C054A31
:10038000118011460988C72901DD002111807047BD
:1003900000100140080000200C00002034480068D4
:1003A00040F001003249086031481430006840F0E4
:1003B00010002F49143108602E48006820F44020B6
:1003C0002C4908600846006840F400200860084690
:1003D000806820F4402088600846806840F400204F
:1003E00088600846406820F4007048600846C0688D
:1003F00020F44020C8600846C06840F48020C860EF
:100400000846406A40F070011A484162006820F4D2
:100410004010184908600846006840F40010086061
:100420000846C06820F44010C8600846C06840F420
:100430008010C8600846406A40F4E0610D4841629F
:1004400040F2D9200C4988600020C8600861084645
:10045000C06840F00800C8600846C06840F004006A
:10046000C8600846C06840F40050C860704700008B
:1004700030380240000002400010014000BF054833
:10048000006800F020000028F9D002484068C0B29F
:10049000704700000010014000BF0449096801F0E6
:1004A00080010029F9D001494860704700100140DF
:1004B00000BF70474FF0E021096941F004014FF09F
:1004C000E0221161054908601146096941F0010106
:1004D00011616FF070415161704700000000002011
:1004E00010B504464FF47A7104FB01F000F002F8F5
:1004F00010BD000070B5034600224FF0E02675697C
:100500000D4E366803FB06F44FF0E026B16910E0AB
:100510004FF0E026B06988420BD0884202D20E1A12
:10052000324402E02E1A0E4432440146A24200D365
:1005300000E0EDE700BF70BD0000002007230222AD
:1005400008214FF4A87000F0E7F8A820FFF7B2FFE9
:10055000FFF724FF6120FFF79FFF7420FFF79CFF48
:100560000A20FFF799FF07E0FFF788FFC4B2A4F164
:100570002000FFF791FF00BFF6E70000F0B504464A
:100580000D460021002000265C4F3F6847F480376D
:10059000DFF868C1CCF8007000E0491C574F3F6895
:1005A00007F400371FB947F6FF77B942F5D347F68E
:1005B000FF77B94201D101209EE0504F40373F689C
:1005C00047F08057DFF834C10CF1400CCCF80070D4
:1005D0004B4F3F6847F44047DFF824C1CCF8007028
:1005E000464F3F1D3F6805F03F0C47EA0C07DFF818
:1005F0000CC10CF1040CCCF8007067463F6847EA68
:100600008417CCF8007067463F684FF0010CCCEBC4
:10061000520C47EA0C47DFF8E4C00CF1040CCCF8AC
:10062000007067463F6847EA0367CCF8007067468A
:100630003F6847F48007CCF800700CF104073F686E
:100640000CF1040CCCF8007067463F6847F4A057E3
:10065000CCF8007067463F6847F40047CCF800705C
:10066000264F3F6847F08077DFF890C0CCF80070E5
:10067000002105E0491CB1F5001F01D3022005E06F
:100680001E4F3F6807F00077002FF3D000BF1D4FCB
:100690003F6847F48077DFF86CC0CCF8007067469D
:1006A0003F6847F40077CCF8007067463F6847F42E
:1006B0008067CCF8007067463F6847F00507CCF8C4
:1006C00000700E4F08373F6847F00207DFF82CC074
:1006D0000CF1080CCCF8007000210AE0074F083735
:1006E0003F68C7F38106491CB1F5001F01D3042000
:1006F00001E0032EF2D100BFF0BD0000003802403F
:1007000000700040003C02404A0A52020243014B82
:100710001A60704708ED00E0F0B504460D46164635
:100720001F4601200B49086000200A490831086073
:10073000091F086007490C3108603B4632462946CC
:100740002046FFF71BFF00214FF00060FFF7DCFFA2
:10075000F0BD0000003802404FF04070E1EE100A9A
:100760007047000084070008000000200C00000013
:10077000C4010008900700080C0000202C050000B0
:10078000E001000800000000000000000000000080
:040000050800018965
:00000001FF
