:020000040800F2
:10000000A005002029020008370200083902000874
:100010003B0200083D0200083F020008000000000B
:100020000000000000000000000000004102000885
:1000300043020008000000004502000847020008D3
:100040004902000849020008490200084902000864
:100050004902000849020008490200084902000854
:100060004902000849020008190300084902000873
:100070004902000849020008490200084902000834
:100080004902000849020008490200084902000824
:100090004902000849020008490200084902000814
:1000A0004902000849020008490200084902000804
:1000B00049020008490200084902000849020008F4
:1000C00049020008490200084902000849020008E4
:1000D00049020008590300084902000849020008C3
:1000E00049020008490200084902000849020008C4
:1000F00049020008490200084902000849020008B4
:1001000049020008490200084902000849020008A3
:100110004902000849020008490200084902000893
:100120004902000849020008490200084902000883
:100130004902000849020008490200084902000873
:100140004902000849020008490200084902000863
:100150004902000849020008490200084902000853
:100160004902000849020008490200084902000843
:100170004902000849020008490200080000000086
:10018000490200084902000800F002F800F03CF8BB
:100190000AA090E8000C82448344AAF10107DA45E2
:1001A00001D100F031F8AFF2090EBAE80F0013F0F8
:1001B000010F18BFFB1A43F0010318477006000037
:1001C00090060000103A24BF78C878C1FAD85207C8
:1001D00024BF30C830C144BF04680C6070470000C1
:1001E0000023002400250026103A28BF78C1FBD840
:1001F000520728BF30C148BF0B6070471FB500F0E1
:100200000FFB1FBD10B510BD00F054F81146FFF7ED
:10021000F5FF00F0E1F900F072F803B4FFF7F2FF28
:1002200003BC00F092F900000B48016841F4700132
:1002300001600A480047FEE7FEE7FEE7FEE7FEE74B
:10024000FEE7FEE7FEE7FEE7FEE70000044805499B
:10025000034A054B7047000088ED00E08901000863
:10026000A0010020A0050020A0010020704710B5CB
:10027000431C02E010F8011B71B18107FAD14FF065
:10028000013202C88C1A8C4314EAC211F9D0C01A88
:100290000A0603D0C01E10BDC01A10BD0A0401D04A
:1002A000801E10BD0902FCD0401E10BD7047704773
:1002B00070477047754600F02BF8AE46050069465A
:1002C000534620F00700854618B020B5FFF7BEFF63
:1002D000BDE820404FF000064FF000074FF0000847
:1002E0004FF0000B21F00701AC46ACE8C009ACE8C8
:1002F000C009ACE8C009ACE8C0098D46704710B52C
:100300000446AFF300802046BDE81040FFF785BFEC
:10031000004870473C01002010B50848006840F0D4
:100320001000064908600A2000F028F90448006916
:1003300000F0100008B900F005F810BD143C0140B1
:10034000001002400348006880F400700149086012
:1003500070470000141402401C49096801F0200194
:1003600009B31A494968C8B21949098801F400411A
:10037000C9B91749098801F4804161B10A2803D03D
:100380000021134A118020E01149098841F40041FD
:100390000F4A118019E00D2806D10D49098841F452
:1003A00080410B4A118010E009490988C1F30D0111
:1003B000084A505406490988491C054A11801146CB
:1003C0000988C72901DD0021118070470010014014
:1003D0000C000020740000203448006840F0010048
:1003E0003249086031481430006840F010002F494D
:1003F000143108602E48006820F440202C49086021
:100400000846006840F4002008600846806820F430
:10041000402088600846806840F4002088600846D4
:10042000406820F4007048600846C06820F440200E
:10043000C8600846C06840F48020C8600846406A2A
:1004400040F070011A484162006820F440101849D9
:1004500008600846006840F4001008600846C0685C
:1004600020F44010C8600846C06840F48010C8609E
:100470000846406A40F4E0610D48416240F2D920EC
:100480000C4988600020C86008610846C06840F0D8
:100490000800C8600846C06840F00400C86008460C
:1004A000C06840F40050C860704700003038024017
:1004B000000002400010014006E00848006800F01B
:1004C000100008B1002070470448006800F02000C8
:1004D0000028F2D001484068C0B2F4E700100140A3
:1004E00000B502460B46002104E0FFF7E5FF50543B
:1004F000481CC1B20748006800F010000028F4D082
:100500000448006803484068481EC0B2014618709D
:1005100000BD00000010014000BF0449096801F05F
:1005200080010029F9D0014948607047001001405E
:1005300010B503460C46002204E0985CFFF7ECFF80
:10054000501CC2B2A242F8DB10BD00BF70470000D1
:100550004FF0E021096941F004014FF0E022116100
:10056000054908601146096941F0010111616FF008
:1005700070415161704700000400002010B504462E
:100580004FF47A7104FB01F000F002F810BD000096
:1005900070B5034600224FF0E02675690D4E3668AF
:1005A00003FB06F44FF0E026B16910E04FF0E026BF
:1005B000B06988420BD0884202D20E1A324402E05F
:1005C0002E1A0E4432440146A24200D300E0EDE769
:1005D00000BF70BD040000200723022208214FF451
:1005E000A87000F0FDF8A820FFF7B2FFFFF7F4FEB7
:1005F0006120FFF791FF7420FFF78EFF0A20FFF7BD
:100600008BFF0AA42046FFF732FE05462946204606
:10061000FFF78EFF08E009490948FFF761FF074827
:1006200001780748FFF784FFF5E7000068656C6C08
:100630006F772077726F6C640A0000000000002062
:1006400010000020F0B504460D46002100200026D1
:100650005C4F3F6847F48037DFF868C1CCF8007022
:1006600000E0491C574F3F6807F400371FB947F6B1
:10067000FF77B942F5D347F6FF77B94201D10120A0
:100680009EE0504F40373F6847F08057DFF834C155
:100690000CF1400CCCF800704B4F3F6847F44047DA
:1006A000DFF824C1CCF80070464F3F1D3F6805F0CD
:1006B0003F0C47EA0C07DFF80CC10CF1040CCCF836
:1006C000007067463F6847EA8417CCF800706746B9
:1006D0003F684FF0010CCCEB520C47EA0C47DFF8B7
:1006E000E4C00CF1040CCCF8007067463F6847EAA0
:1006F0000367CCF8007067463F6847F48007CCF882
:1007000000700CF104073F680CF1040CCCF8007089
:1007100067463F6847F4A057CCF8007067463F68CB
:1007200047F40047CCF80070264F3F6847F08077C9
:10073000DFF890C0CCF80070002105E0491CB1F54D
:10074000001F01D3022005E01E4F3F6807F000772D
:10075000002FF3D000BF1D4F3F6847F48077DFF8CC
:100760006CC0CCF8007067463F6847F40077CCF85F
:10077000007067463F6847F48067CCF800706746B2
:100780003F6847F00507CCF800700E4F08373F6808
:1007900047F00207DFF82CC00CF1080CCCF8007011
:1007A00000210AE0074F08373F68C7F38106491C5C
:1007B000B1F5001F01D3042001E0032EF2D100BFE8
:1007C000F0BD00000038024000700040003C0240D4
:1007D0004A0A52020243014B1A60704708ED00E0DA
:1007E000F0B504460D4616461F4601200B49086029
:1007F00000200A4908310860091F086007490C31C8
:1008000008603B46324629462046FFF71BFF002181
:100810004FF00060FFF7DCFFF0BD00000038024041
:100820004FF04070E1EE100A704700004C080008DD
:100830000000002010000000C40100085C0800084F
:100840001000002090050000E001000800000000FA
:0C0850000000000000000000000000009C
:040000050800018965
:00000001FF
