:020000040800F2
:10000000D8040020A1010008AF010008B1010008D8
:10001000B3010008B5010008B701000800000000A6
:10002000000000000000000000000000B90100080E
:10003000BB01000800000000BD010008BF0100086E
:10004000C1010008C1010008C1010008C101000888
:10005000C1010008C1010008C1010008C101000878
:10006000C1010008C101000815020008C101000813
:10007000C1010008C1010008C1010008C101000858
:10008000C1010008C1010008C1010008C101000848
:10009000C1010008C1010008C1010008C101000838
:1000A000C1010008C1010008C1010008C101000828
:1000B000C1010008C1010008C1010008C101000818
:1000C000C1010008C1010008C1010008C101000808
:1000D000C101000841060008C1010008C101000873
:1000E000C1010008C1010008C1010008C1010008E8
:1000F000C1010008C1010008C1010008C1010008D8
:10010000C1010008C1010008C1010008C1010008C7
:10011000C1010008C1010008C1010008C1010008B7
:10012000C1010008C1010008C1010008C1010008A7
:10013000C1010008C1010008C1010008C101000897
:10014000C1010008C1010008C1010008C101000887
:10015000C1010008C1010008C1010008C101000877
:10016000C1010008C1010008C1010008C101000867
:10017000C1010008C1010008C10100080000000021
:10018000C1010008C1010008DFF810D000F030F80C
:100190000048004759090008AFF30080D804002048
:1001A0000848016841F47001016007480047FEE714
:1001B000FEE7FEE7FEE7FEE7FEE7FEE7FEE7FEE717
:1001C000FEE7000088ED00E089010008D2B201E0FE
:1001D00000F8012B491EFBD270470022F6E710B54C
:1001E00013460A4604461946FFF7F0FF204610BDA5
:1001F000064C074D06E0E06840F0010394E8070074
:1002000098471034AC42F6D3FFF7C2FFB00C000899
:10021000D00C000810B50848006840F010000649EE
:1002200008600A2000F05CFB0448006900F0100040
:1002300008B900F069F910BD143C014000100240FB
:1002400010B51948006820F4807017490860084606
:10025000006840F4007008600A2000F04BFB124870
:10026000006820F40070104908600A2000F042FB8A
:100270000D48006840F480700B4908600A2000F0C7
:1002800039FB0948006820F48070074908600A209B
:1002900000F030FB0448006840F400700249086038
:1002A0000A2000F027FB10BD140402401648006825
:1002B00040F00200144908601448006820F47020DF
:1002C000124908600846006840F4A02008600F4802
:1002D0000830006840F420200C4908310860081FED
:1002E000006840F44070091F086008480C3000683E
:1002F00020F4702005490C3108600846006840F47D
:10030000A02008607047000030380240000402401E
:1003100010B51048006820F480700E490860084647
:10032000006840F4007008600A2000F0E3FA094811
:10033000006840F48070074908600A2000F0DAFA8B
:100340000448006820F48070024908600A2000F028
:10035000D1FA10BD1404024070B50024002526E037
:100360001548006820F48070134908600A2000F0E6
:10037000C1FA1148006840F480700F4908600A20F3
:1003800000F0B8FA6006040E0B48001F006800F485
:10039000007008B144F001040748006820F4807040
:1003A000054908600A2000F0A5FA681CC5B2082DAE
:1003B000D6DB204670BD00001404024070B5044630
:1003C000002536E01C48006820F480701A49086057
:1003D0000846006820F4007008600A2000F08AFADD
:1003E00004F0800030B11448006840F400701249F5
:1003F000086005E01048006820F400700E490860AD
:100400000A2000F077FA0C48006840F480700A492E
:1004100008600A2000F06EFA0748006820F4807037
:10042000054908600A2000F065FA6006040E681CA1
:10043000C5B2082DC6DB70BD1404024010B50C48CF
:10044000006840F480700A4908600846006840F47B
:10045000007008600A2000F04DFA0548006820F49A
:100460000070034908600A2000F044FA10BD000043
:100470001404024010B50C48006840F480700A492A
:1004800008600846006820F4007008600A2000F048
:1004900031FA0548006840F40070034908600A20FA
:1004A00000F028FA10BD00001404024010B51548F1
:1004B000006820F48070134908600846006840F422
:1004C000007008600A2000F015FA0E48006840F439
:1004D00080700C4908600A2000F00CFA0948001FDF
:1004E000006800F400740748006820F48070054933
:1004F00008600A2000F0FEF90CB1012010BD0020B8
:10050000FCE70000140402400348006880F4007017
:1005100001490860704700001414024010B5FFF74D
:10052000C5FE10BD70B50446FFF788FFA020FFF799
:1005300045FFFFF7BBFF2046FFF740FFFFF7B6FF81
:10054000FFF77CFFA120FFF739FFFFF7AFFFFFF7B1
:1005500003FF0546FFF7DCFEFFF78CFF284670BD62
:100560002DE9F04107460E461546FFF767FFA0202C
:10057000FFF724FFFFF79AFF3846FFF71FFFFFF74B
:1005800095FFFFF75BFFA120FFF718FFFFF78EFF36
:1005900000240CE0FFF7E0FE3055681EA04202DDAB
:1005A000FFF74EFE01E0FFF7B3FE601CC4B2AC42A1
:1005B000F0DBFFF75FFFBDE8F08170B505460C4644
:1005C000FFF73CFFA020FFF7F9FEFFF76FFF06469D
:1005D0005EB92846FFF7F2FEFFF768FF2046FFF7F7
:1005E000EDFEFFF763FFFFF745FF052000F078F908
:1005F00070BD2DE9F04107460D461646FFF71EFF78
:10060000A020FFF7DBFEFFF751FF8046B8F1000F97
:1006100011D13846FFF7D2FEFFF748FF002406E06D
:10062000285DFFF7CBFEFFF741FF601CC4B2B44268
:10063000F6DBFFF71FFF052000F052F9BDE8F0815F
:100640001C49096801F0200109B31A494968C8B278
:100650001949098801F40041C9B91749098801F409
:10066000804161B10A2803D00021134A118020E0A3
:100670001149098841F400410F4A118019E00D2801
:1006800006D10D49098841F480410B4A118010E0E0
:1006900009490988C1F30D01084A505406490988DF
:1006A000491C054A118011460988C72901DD00212E
:1006B0001180704700100140080000200C0000204D
:1006C0003448006840F00100324908603148143075
:1006D000006840F010002F49143108602E4800686F
:1006E00020F440202C4908600846006840F40020AF
:1006F00008600846806820F44020886008468068CA
:1007000040F4002088600846406820F4007048608B
:100710000846C06820F44020C8600846C06840F41D
:100720008020C8600846406A40F070011A48416263
:10073000006820F44010184908600846006840F43A
:10074000001008600846C06820F44010C8600846E1
:10075000C06840F48010C8600846406A40F4E06118
:100760000D48416240F2D9200C4988600020C860E1
:1007700008610846C06840F00800C8600846C068C4
:1007800040F00400C8600846C06840F40050C860EB
:100790007047000030380240000002400010014065
:1007A0000FB4054B10B503A9044A029800F017F8DE
:1007B00010BC5DF814FB00003D0900080400002097
:1007C00002E008C8121F08C1002AFAD1704770471A
:1007D000002001E001C1121F002AFBD170472DE962
:1007E000F84F9946924688460546002706E0252898
:1007F0000AD051464A4690476D1C7F1C2878002835
:10080000F5D13846BDE8F88F002315F8011F1846CA
:100810002E2915D115F8011F04232A290DD06FF0B8
:100820002F022978A1F13004092C09D800EB8000AF
:1008300002EB400008446D1CF3E758F8040B6D1CF4
:100840002A78002ADDD0632A07D0732A0FD01046F9
:1008500051464A4690477F1C2AE018F8042B8DF831
:10086000002000218DF801106E46012103E058F8A8
:10087000046B4FF0FF315A074FF0000401D409E038
:10088000641C84420BDA8C42FADB325D002AF7D119
:1008900005E0641C8C42FCDB305D0028F9D1274464
:1008A00004E016F8010B51464A469047641EF8D200
:1008B0006D1CA3E74FF0E021096941F004014FF0FE
:1008C000E0221161054908601146096941F0010102
:1008D00011616FF07041516170470000000000200D
:1008E00010B504464FF47A7104FB01F000F002F8F1
:1008F00010BD000070B5034600224FF0E026756978
:100900000D4E366803FB06F44FF0E026B16910E0A7
:100910004FF0E026B06988420BD0884202D20E1A0E
:10092000324402E02E1A0E4432440146A24200D361
:1009300000E0EDE700BF70BD0000002000BF054AE9
:10094000126802F04002002AF9D0C2B2014B5A608C
:1009500070470000001001409AB0072302220821CE
:100960004FF4A87000F084F9A820FFF7A3FFFFF769
:10097000A7FEFFF7D3FD2FA0FFF712FF6121002094
:10098000FFF71BFE62210120FFF717FE6321022003
:10099000FFF713FE64210320FFF70FFE0020FFF78F
:1009A000C1FD05460120FFF7BDFD06460320FFF708
:1009B000B9FD07460220FFF7B5FD04463B46324627
:1009C000294621A00094FFF7EBFE07222AA1002070
:1009D000FFF70FFE642101A8FFF7FFFB072201A923
:1009E0000020FFF7BDFD01A925A0FFF7D9FE0D22CC
:1009F00027A10020FFF7FDFD0D2201A90020FFF730
:100A0000AFFD01A926A0FFF7CBFE642101A8FFF7E7
:100A1000E4FB102226A10020FFF7EBFD102201A924
:100A20000020FFF79DFD01A926A0FFF7B9FE00BF3A
:100A3000FEE70000494943C8EDBCFEC4A3C4E2BFC1
:100A4000AACABC210A0000006279746531203D20E9
:100A5000256309206279746532203D2025630920D1
:100A60006279746533203D202563092062797465BD
:100A700034203D2025630A0031323334356166006D
:100A800062756666657231203D2025730A0000009C
:100A90003132333435363738393061626300000023
:100AA00062756666657232203D2025730A0000007B
:100AB00031323334353637383930616263646566D4
:100AC0000000000062756666657233203D20257364
:100AD0000A000000F0B504460D4600210020002663
:100AE0005C4F3F6847F48037DFF868C1CCF800708E
:100AF00000E0491C574F3F6807F400371FB947F61D
:100B0000FF77B942F5D347F6FF77B94201D101200B
:100B10009EE0504F40373F6847F08057DFF834C1C0
:100B20000CF1400CCCF800704B4F3F6847F4404745
:100B3000DFF824C1CCF80070464F3F1D3F6805F038
:100B40003F0C47EA0C07DFF80CC10CF1040CCCF8A1
:100B5000007067463F6847EA8417CCF80070674624
:100B60003F684FF0010CCCEB520C47EA0C47DFF822
:100B7000E4C00CF1040CCCF8007067463F6847EA0B
:100B80000367CCF8007067463F6847F48007CCF8ED
:100B900000700CF104073F680CF1040CCCF80070F5
:100BA00067463F6847F4A057CCF8007067463F6837
:100BB00047F40047CCF80070264F3F6847F0807735
:100BC000DFF890C0CCF80070002105E0491CB1F5B9
:100BD000001F01D3022005E01E4F3F6807F0007799
:100BE000002FF3D000BF1D4F3F6847F48077DFF838
:100BF0006CC0CCF8007067463F6847F40077CCF8CB
:100C0000007067463F6847F48067CCF8007067461D
:100C10003F6847F00507CCF800700E4F08373F6873
:100C200047F00207DFF82CC00CF1080CCCF800707C
:100C300000210AE0074F08373F68C7F38106491CC7
:100C4000B1F5001F01D3042001E0032EF2D100BF53
:100C5000F0BD00000038024000700040003C02403F
:100C60004A0A52020243014B1A60704708ED00E045
:100C7000F0B504460D4616461F4601200B49086094
:100C800000200A4908310860091F086007490C3133
:100C900008603B46324629462046FFF71BFF0021ED
:100CA0004FF00060FFF7DCFFF0BD000000380240AD
:100CB000D00C0008000000200C000000C007000855
:100CC000DC0C00080C000020CC040000D007000859
:0C0CD00000000000000000000000000018
:040000050800018965
:00000001FF
