:020000040800F2
:100000002007002029020008C71100084D11000830
:10001000C51100081F0400081D150008000000009D
:10002000000000000000000000000000CB110008EC
:100030002104000800000000C9110008CD110008CB
:10004000430200084302000843020008430200087C
:10005000430200084302000843020008430200086C
:10006000430200084302000843020008430200085C
:10007000430200084302000843020008430200084C
:10008000430200084302000843020008430200083C
:10009000430200084302000843020008430200082C
:1000A000430200084302000843020008430200081C
:1000B000430200084302000843020008430200080C
:1000C00043020008430200084302000843020008FC
:1000D000430200081115000843020008430200080B
:1000E00043020008430200084302000843020008DC
:1000F00043020008430200084302000843020008CC
:1001000043020008430200084302000843020008BB
:1001100043020008430200084302000843020008AB
:10012000430200084302000843020008430200089B
:10013000430200084302000843020008430200088B
:10014000430200084302000843020008430200087B
:10015000430200084302000843020008430200086B
:10016000430200084302000843020008430200085B
:100170004302000843020008430200080000000098
:10018000430200084302000800F002F800F03CF8C7
:100190000AA090E8000C82448344AAF10107DA45E2
:1001A00001D100F031F8AFF2090EBAE80F0013F0F8
:1001B000010F18BFFB1A43F001031847EC130000AE
:1001C0000C140000103A24BF78C878C1FAD852073E
:1001D00024BF30C830C144BF04680C6070470000C1
:1001E0000023002400250026103A28BF78C1FBD840
:1001F000520728BF30C148BF0B6070471FB501F0E0
:10020000C1F91FBD10B510BD00F0CFF81146FFF7C2
:10021000F5FF01F095F900F0EDF803B4FFF7F2FFF8
:1002200003BC00F0F5F80000094880470948004782
:10023000FEE7FEE7FEE7FEE7FEE7FEE7FEE7FEE796
:10024000FEE7FEE704480549054A064B70470000F3
:100250006912000889010008200100202007002001
:10026000200300202003002053EA020C00F06980E4
:100270002DE9F04B4FF00006002B1FBFB3FA83F5BA
:1002800003FA05F424FA05F65E4012BF1643B2FAEB
:1002900082F502FA05F4C5F120051EBF22FA05FC1D
:1002A00044EA0C04203556EA044C4FEA144418BFC3
:1002B000641C4FF000084FF00009904271EB030CF2
:1002C00039D3002919BFB1FA81F701FA07F6B0FA5C
:1002D00080F700FA07F6C7F120071EBF20FA07FCD7
:1002E00046EA0C062037B6FBF4FCA7EB0507103FE7
:1002F00007F01F0BCBF120060CFA0BFB2CFA06F6CD
:1003000044BFB3460026202FA4BF5E464FF0000B2B
:100310005BEA060C08BF4FF0010B19EB0B09ABFBB6
:10032000027C48EB0608C01B06FB02CC0BFB03CC8F
:1003300071EB0C01C1E70B46024641464846BDE859
:10034000F08B13B54FF000004FF00001AFF30080C9
:10035000BDE81C4070474FF0000200B513469446BC
:100360009646203922BFA0E80C50A0E80C50B1F10D
:100370002001BFF4F7AF090728BFA0E80C5048BF21
:100380000CC05DF804EB890028BF40F8042B08BFBF
:10039000704748BF20F8022B11F0804F18BF00F8BB
:1003A000012B7047704770477047754600F02CF876
:1003B000AE4605006946534620F00700854618B052
:1003C00020B5FFF73FFFBDE820404FF000064FF09B
:1003D00000074FF000084FF0000B21F00701AC467A
:1003E000ACE8C009ACE8C009ACE8C009ACE8C00999
:1003F0008D46704710B50446AFF300802046BDE837
:100400001040FFF70ABF000000487047BC00002002
:1004100001491820ABBEFEE7260002007047FEE748
:10042000704772B6FEE72DE9F0410446876D00F093
:1004300049F9064694F835000025022806D08020A8
:10044000606584F834500120BDE8F08120680168BF
:1004500021F0160101602068416921F080014161AD
:10046000206C08B9A06C20B12068016821F0080157
:1004700001602068016821F0010101600BE000F0DB
:1004800021F9801B052806D92020606504F8345F17
:1004900003206070D8E720680068C007EFD194F8A7
:1004A0005C103F208840B86004F8345F0120607021
:1004B0000020C9E790F83510022903D0802141655A
:1004C00001207047052180F835100068016821F08F
:1004D00001010160002070472DE9F84FDFF8B8A155
:1004E000002201250AF1040B03264FF00F090BF13E
:1004F000040E00BF0B6805FA02F42340A3426FD13B
:100500000F7907F00307012F01D0022F16D187685A
:100510004FEA420806FA08FC27EA0C07D1F80CC09B
:100520000CFA08FC4CEA070CC0F808C04768A7435F
:100530000C79C4F3001494403C4344600C79E443C8
:10054000A4070AD0C4684FEA420C06FA0CF7BC4371
:100550008F6807FA0CF72743C7600C7904F003048F
:10056000022C12D1D40800EB840CDCF82040570791
:10057000FF0E09FA07F824EA0804D1F8108008FAF7
:1005800007F848EA0408CCF8208004684FEA420CD7
:1005900006FA0CF7BC430F7907F0030707FA0CF7CC
:1005A000274307604C68E40070D53C4C276847F44B
:1005B00080472760246822F0030704F480440094F5
:1005C000374C07EB040CDCF8084897074FEA17781C
:1005D00009FA08F7BC43334FB84202D1002724E0A0
:1005E00054E0314FB84201D101271EE02F4FB842ED
:1005F00001D1022719E02E4FB84201D1032714E0A0
:100600002C4FB84201D104270FE02B4FB84201D143
:1006100005270AE0294FB84201D1062705E0284FF7
:10062000B84201D1072700E0082707FA08F7274357
:10063000CCF80878DAF800405746D1F804C09C435B
:100640005FEACC3C00D51C433C60DBF800405F46D1
:10065000D1F804C09C435FEA8C3C00D51C433C604D
:10066000DEF800407746D1F804C09C435FEACC2C0A
:1006700000D51C433C60084F0C373C68D1F804C0DF
:100680009C435FEA8C2C00D51C433C60521C102A12
:10069000FFF430AFBDE8F88F003C01404438024021
:1006A0000030014000000240000402400008024007
:1006B000000C0240001002400014024000180240EA
:1006C000001C0240014880687047000004000020C0
:1006D000024881680278114481607047040000205C
:1006E0000B4810B5016841F400710160016841F4E4
:1006F00080610160016841F480710160032000F0B5
:100700006FF80F2000F006F800F024F8002010BD6C
:10071000003C024070B50D4D04464FF47A712878C4
:10072000B1FBF0F00A490968B1FBF0F000F00AFBF8
:1007300048B9102C07D200222146501E00F030F894
:1007400000206C6070BD012070BD0000040000201E
:10075000100000200A4808B5016841F4804101609A
:10076000006800F4804000900548001F016841F0D7
:1007700080510160006800F08050009008BD0000CA
:1007800044380240002809DB00F01F02012191409B
:100790004009800000F1E020C0F80011704700001F
:1007A000F0B40E4B1B680C46C3F30223C3F10705DC
:1007B000042D00D90425191D072901D2002300E0CA
:1007C000DB1E012606FA05F1491E214099409E4094
:1007D000761E16403143F0BC00F0A1BE0CED00E0E7
:1007E000064900F0070208684FF6FF03184040EA88
:1007F0000220034A10430860704700000CED00E03F
:100800000000FA052DE9F0470E46050065D0DFF837
:100810001481D8F80000F7B200F00700B04207D208
:1008200088F80070D8F8000000F00700B04254D1FA
:1008300028683D4C810712D5400703D5206840F455
:10084000E05020602878000703D5206840F460401D
:1008500020602068A96820F0F00008432060287814
:10086000C0072DD0304968680839012812D0022805
:1008700013D0032811D00968890700292DDA2168CF
:1008800021F0030101432160FFF71CFF814641F283
:10089000883A0EE009688903EFE709688901ECE707
:1008A000FFF710FFA0EB0901514502D90320BDE875
:1008B000F0872068696800F00C00B0EB810FEFD181
:1008C000D8F80010404601F00701B14207D907707F
:1008D000006800F00700B04201D00120E7E7287867
:1008E000400705D52068E96820F4E05008432060FF
:1008F0002878000706D52068296920F4604040EA7E
:10090000C100206000F038F82168084AC1F30311E3
:10091000515CC8400649086006480068FFF7FAFEC7
:100920000020C4E7003C0240083802408E15000851
:1009300010000020080000200448054900680968EC
:10094000044AC1F38221515CC84070471000002066
:10095000083802409E1500080448054900680968E7
:10096000044AC1F34231515CC84070471000002076
:10097000083802409E150008154810B5006810F0B0
:100980000C02144813D04110042A0FD0082A0ED1AB
:100990000F4C241F2268236802F03F025B0207D538
:1009A0002068C0F38810A0FB010106E0084610BDD6
:1009B0002168C1F38811A1FB00010023FFF754FC5B
:1009C0002168C1F30141491C4900B0FBF1F010BDA1
:1009D000083802400024F4002DE9F84F04006ED0DE
:1009E0002078DFF84C93C007A9F104054AD009F13B
:1009F00004000168C1F38101012908D00068C0F337
:100A0000810002280AD1D9F80000400206D52868E2
:100A1000800337D560680028E1D033E06068B0F526
:100A2000803F10D0B0F5A02F286810D020F480307F
:100A30002860286820F4802028606068A8B1FFF74B
:100A400041FE06460DE0286840F48030F4E740F4AB
:100A500080202860F7E700BFFFF734FE801B642882
:100A600073D828688003F7D50CE0FFF72BFE064605
:100A700005E000BFFFF726FE801B6428F0D8286839
:100A80008003F7D42078DFF8AC8280074FF0000AAB
:100A90003ED5A748001D016811F00C0F08D0006872
:100AA000C0F3810002280BD1D9F80000400207D41E
:100AB0002868800716D5E068012800D112E033E1EC
:100AC000E068B8B10120C8F80000FFF7FBFD06465A
:100AD00005E000BFFFF7F6FD801B0228C0D828689C
:100AE0008007F7D52868216920F0F80040EAC100A6
:100AF00028600DE0C8F800A0FFF7E4FD064604E01A
:100B0000FFF7E0FD801B02281FD828688007F7D474
:100B10002078000722D5864F87486169703771B108
:100B200001210160FFF7CEFD064604E0FFF7CAFD94
:100B3000801B022809D838688007F7D50EE0C0F876
:100B400000A0FFF7BFFD064605E082E0FFF7BAFD13
:100B5000801B02287DD838688007F7D420784007AA
:100B600068D5DFF8CCB100270BF13C0BDBF80000B7
:100B7000C0000BD4DBF8001041F08051CBF800101E
:100B8000DBF80000012700F0805000906B4E3068C9
:100B9000C00510D4306840F480703060FFF792FDDB
:100BA000009005E0FFF78EFD0099401A022850D80A
:100BB0003068C005F6D55E4EA0686C3601280FD0AF
:100BC0000528306810D020F001003060306820F037
:100BD00004003060A068B8B1FFF774FD00900FE02A
:100BE000306840F00100F4E740F004003060F7E7BF
:100BF000FFF768FD0099411A41F28830814266D8BA
:100C000030688007F4D50EE0FFF75CFD009007E048
:100C1000FFF758FD0099411A41F28830814256D8B9
:100C200030688007F4D42FB1DBF8001021F0805138
:100C3000CBF80010A069C8B33D49091D0968C1F38C
:100C4000810102294AD00228504607D0C8F8600026
:100C500000E03CE0FFF736FD04463BE04746C8F8BD
:100C60006000FFF72FFD064605E000BFFFF72AFDF5
:100C7000801B02282BD828688001F7D4D4E907010B
:100C80000843A16A2E4A490802EB0141626A41EA1F
:100C90008211084394F82C1040EA0161C9F8001051
:100CA00001203866FFF70EFD044606E03EE000BF77
:100CB000FFF708FD001B022809D828688001F7D536
:100CC00034E000BFFFF7FEFC001B022802D903201E
:100CD000BDE8F88F28688001F4D427E00128F7D018
:100CE000D9F80000E26900F4800191421CD1226A27
:100CF00000F03F01914217D147F6C071626A01408E
:100D0000B1EB821F10D1A26A4FF0FF3300F44031E3
:100D100003EB5202B1EB024F06D194F82C1000F015
:100D20007060B0EB016F01D00120D1E70020CFE768
:100D30000438024000004742800E474200700040E5
:100D40000000FFFF10B5401EB0F1807F01D30120ED
:100D500010BD4FF0E02460610F21601700F0DFFB51
:100D60000020A06107202061002010BD704770475F
:100D7000F8B5026804461068D168536910F00F0F87
:100D80004FF0000553D003F0010601F4907737438C
:100D90005FD0C20705D0CA0503D5226C42F001021C
:100DA0002264420705D5DA0703D0226C42F0020222
:100DB0002264820705D5DA0703D0226C42F00402D0
:100DC0002264020707D501F02002324303D0226CCF
:100DD00042F008022264226C002A34D0800604D536
:100DE000880602D5204600F067FA20684069216C29
:100DF000C0F38010090700D430B3204600F044FA55
:100E00002068416949061BD5416921F040014161D3
:100E1000A06BA8B159490165A06BFFF74BFB0028F7
:100E200011D0A06B016D01B0BDE8F040084783060A
:100E30000FD58B060DD52046BDE8F84000F03CBA32
:100E40002046FFF794FFF8BD2046FFF790FF25648A
:100E5000F8BD266B2023012E53D1C60651D5CE06F0
:100E60004FD5106850680090506940062BD5A16B93
:100E7000086840680004000CEAD0A68D8642E7D9D5
:100E8000E085C869B0F5807F18D0D06820F4807004
:100E9000D0602068416921F0010141612068416909
:100EA00021F04001416184F83E3025632068C1682B
:100EB00021F01001C160A06BFFF7B5FAA08DE18DA4
:100EC000401A81B219E0A08DE18D401A81B2E08D07
:100ED0000028BDD00029BBD0D06820F49070D0602D
:100EE0002068426922F00102426184F83E302563A5
:100EF0002068C26822F01002C2602046FFF736FF69
:100F0000F8BD05062BD50D0629D594F83D002128FE
:100F1000F6D1A068B0F5805F01D12069B0B1206A38
:100F2000411C2162216800784860E08C401E00046A
:100F3000000CE084E4D12068C16821F08001C16028
:100F40002068C16841F04001C160F8BD206A008896
:100F5000C0F308005060206A801C2062E5E740066C
:100F6000F3D54806F1D5D168204621F04001D16083
:100F700084F83D3000F0E9F8F8BD0000791200086F
:100F800070B5040004D094F83D00002510B106E0CF
:100F9000012070BD84F83C50204600F023F8242046
:100FA00084F83D002068C16821F40051C1602046EA
:100FB00000F0DAF92068016921F4904101612068AC
:100FC000416921F02A0141612068C16841F4005162
:100FD000C1602564202084F83D0084F83E00002094
:100FE00070BD000010B586B0044614216846FFF7B6
:100FF000B2F918492068884229D1174800210268AF
:1010000042F010020260006800F0100005901248E3
:101010001438026842F001020260006800F001002A
:1010200005904FF4C06000900220CDE9010103203B
:1010300003900720049069460848FFF74DFA002204
:1010400011462520FFF7ACFB2520FFF79BFB06B0E0
:1010500010BD000000100140443802400000024072
:1010600090F83E30202B0ED159B152B190F83C305F
:10107000012B08D0012380F83C300023036300F0EB
:10108000F9B9012070470220704700000149012092
:1010900008707047000000202DE9F843044690F8DE
:1010A0003D001F4616460D4620284CD1C5B1BEB1A5
:1010B00094F83C00012846D0012084F83C004FF011
:1010C0000008C4F84080212084F83D00FFF7FAFAB8
:1010D000A6848146E684A068B0F5805F03D004E072
:1010E0000120BDE8F883206928B12E465FF0000595
:1010F00084F83C800EE00026FAE78021204600F0CC
:10110000D4F9A0B9AEB116F8010B21684860E08CA3
:10111000401EE084E08C4B464FF000020097002810
:10112000EBD14FF04001204600F0BFF930B1032071
:10113000D7E735F8020BC0F30800E6E7202084F873
:101140003D000020CDE70220CBE77047FEE700001E
:101150000D4808B5016841F004010160016801F023
:1011600004010091016841F080010160016801F013
:1011700080010091016841F001010160006800F008
:101180000100009008BD0000303802400C4810B546
:101190000A4901604FF4E1314160002181600C2275
:1011A000C160C0E904128161C161FFF7E9FE002856
:1011B00003D0BDE81040FFF734B910BD0010014066
:1011C00078000020FEE7FEE770477047FFF780BA1F
:1011D00030B593B030216846FFF7BDF814210CA854
:1011E000FFF7B9F81E480025016841F08051016001
:1011F000006800F0805011901A48016841F4804165
:1012000001600068022400F48040119001200090E9
:10121000000401908001CDE90640082008904FF4B9
:10122000A870CDE9090404200B906846FFF7D4FBB1
:1012300008B172B6FEE70CA90F2081E831004FF427
:10124000A0500F904FF48050109005210CA8FFF78C
:10125000D9FA002801D072B6FEE713B030BD000005
:1012600040380240007000400248016841F47001BB
:101270000160704788ED00E010B5806B0021C185EA
:10128000C184FFF774FD10BD0168CA6822F4907232
:10129000CA6001684A6922F001024A61016B0129B2
:1012A00004D10168CA6822F01002CA60202180F8C7
:1012B0003E1000210163704710B5044690F83E00CF
:1012C000222801D0022010BDA1684FF48052914223
:1012D00001D1206920B1A06A91421BD049B10AE036
:1012E0002168A06A4968C1F308010180A06A801CD6
:1012F00008E0216971B12168496801F07F0101703E
:10130000A06A401CA062E08D401E0004000CE08535
:1013100003D01CE021684968F1E72068C16821F02A
:101320002001C1602068C16821F48071C16020681B
:10133000416921F001014161202084F83E00206BC9
:10134000012806D02046FFF7A1FE002020630020E0
:1013500010BD2068C16821F01001C160A18D204638
:10136000FFF704FDF1E7000070B50446006801696D
:10137000E26821F44051114301612169A068E269EA
:1013800008436169114308432168CA6849F20C6344
:101390009A430243CA6020684169A26921F44071FE
:1013A0001143416131492068884202D03049884266
:1013B00002D1FFF7D1FA01E0FFF7BEFAE26900239C
:1013C000192164253226B2F5004F626828D0A0FBAF
:1013D0000101930F9200FEF747FF0146B0FBF5F0C5
:1013E0006FF01802504301EB800006EB0010B0FBD9
:1013F000F5F000F0F002B1FBF5F002EB0012B1FBEA
:10140000F5F06FF01803584301EB800006EB001075
:10141000B0FBF5F000F00F0021681044886070BD4B
:10142000A0FB010192185B41FEF71EFF0146B0FBD5
:10143000F5F00201B1FBF5F06FF01803584301EB32
:10144000800006EBC000B0FBF5F000F0F80002EB06
:101450004002B1FBF5F0584301EB800006EBC00001
:10146000B0FBF5F000F00700D6E7000000100140E7
:101470000014014081628285C2850021016422221C
:1014800080F83E2080F83C100168CA6842F48072FF
:10149000CA6001684A6942F001024A610068C16895
:1014A00041F02001C160002070472DE9F0419846CD
:1014B00017460E460446069D1DE0681C1BD02DB144
:1014C000FFF700F9A0EB0800A84214D92068C16812
:1014D00021F4D071C1602068416921F001014161AE
:1014E000202084F83D0084F83E00002084F83C0071
:1014F0000320BDE8F0812068006836EA000004D0CF
:101500000020B842D9D00020F3E70120F9E700001D
:101510000148FFF72DBC000078000020FEE7090716
:10152000090E002804DB00F1E02080F80014704769
:1015300000F00F0000F1E02080F8141D704700005B
:10154000FFF7CEF8FFF744FEFFF702FEFFF71EFE9F
:10155000094C00264FF47A75207830B12B460A22C8
:1015600006490748FFF798FD26700A2203490448F8
:10157000FFF776FDF0E700000000002014000020D7
:10158000780000204FF04070E1EE100A7047000034
:101590000000000000000102030406070809000023
:1015A0000000010203040000C8150008000000202C
:1015B00014000000C4010008DC150008140000201D
:1015C0000C070000E001000800000000010000001E
:0C15D00010000000000000000024F400E7
:040000050800018965
:00000001FF
