:020000040800F2
:1000000038050020290200083702000839020008DC
:100010003B0200083D0200083F020008000000000B
:100020000000000000000000000000004102000885
:1000300043020008000000004502000847020008D3
:100040004902000849020008490200084902000864
:100050004902000849020008490200084902000854
:100060004902000849020008490200084902000844
:100070004902000849020008490200084902000834
:100080004902000849020008490200084902000824
:100090004902000849020008490200084902000814
:1000A0004902000849020008490200084902000804
:1000B00049020008490200084902000849020008F4
:1000C00049020008490200084902000849020008E4
:1000D00049020008DD020008490200084902000840
:1000E00049020008490200084902000849020008C4
:1000F00049020008490200084902000849020008B4
:1001000049020008490200084902000849020008A3
:100110004902000849020008490200084902000893
:100120004902000849020008490200084902000883
:100130004902000849020008490200084902000873
:100140004902000849020008490200084902000863
:100150004902000849020008490200084902000853
:100160004902000849020008490200084902000843
:100170004902000849020008490200080000000086
:10018000490200084902000800F002F800F03CF8BB
:100190000AA090E8000C82448344AAF10107DA45E2
:1001A00001D100F031F8AFF2090EBAE80F0013F0F8
:1001B000010F18BFFB1A43F001031847C8040000E1
:1001C000E8040000103A24BF78C878C1FAD8520772
:1001D00024BF30C830C144BF04680C6070470000C1
:1001E0000023002400250026103A28BF78C1FBD840
:1001F000520728BF30C148BF0B6070471FB500F0E1
:100200003BFA1FBD10B510BD00F035F81146FFF7E1
:10021000F5FF00F0E9F800F053F803B4FFF7F2FF40
:1002200003BC00F09BF800000B48016841F470012A
:1002300001600A480047FEE7FEE7FEE7FEE7FEE74B
:10024000FEE7FEE7FEE7FEE7FEE70000044805499B
:10025000034A054B7047000088ED00E08901000863
:100260003801002038050020380100207047704711
:10027000704770477047754600F02CF8AE46050091
:100280006946534620F00700854618B020B5FFF7B1
:10029000DDFFBDE820404FF000064FF000074FF0B3
:1002A00000084FF0000B21F00701AC46ACE8C00994
:1002B000ACE8C009ACE8C009ACE8C0098D4670479D
:1002C00010B50446AFF300802046BDE81040FFF7AC
:1002D000A4BF000000487047D40000201C490968F2
:1002E00001F0200109B31A494968C8B219490988BF
:1002F00001F40041C9B91749098801F4804161B18D
:100300000A2803D00021134A118020E011490988EE
:1003100041F400410F4A118019E00D2806D10D4922
:10032000098841F480410B4A118010E0094909888D
:10033000C1F30D01084A505406490988491C054A71
:10034000118011460988C72901DD002111807047FD
:1003500000100140080000200C00002000BF704782
:100360004FF0E021096941F004014FF0E0221161F2
:10037000054908601146096941F0010111616FF0FA
:1003800070415161704700000000002010B5044624
:100390004FF47A7104FB01F000F002F810BD000088
:1003A00070B5034600224FF0E02675690D4E3668A1
:1003B00003FB06F44FF0E026B16910E04FF0E026B1
:1003C000B06988420BD0884202D20E1A324402E051
:1003D0002E1A0E4432440146A24200D300E0EDE75B
:1003E00000BF70BD000000200723022208214FF447
:1003F000A87000F021F9A820FFF7B2FF2548006897
:1004000040F02000234908602348006820F4402081
:10041000214908600846006840F4802008601E48B2
:100420000830006820F440201B4908310860084665
:10043000006840F400200860081D006820F4402097
:10044000091D08600846006840F4802008601248D2
:10045000001D006820F400700F49091D086017E0B6
:100460000D481430006840F400700B4914310860E6
:100470004FF4FA70FFF78AFF07481430006820F441
:1004800000700549143108604FF4FA70FFF77EFFE1
:10049000E6E700003038024000140240F0B50446A0
:1004A0000D460021002000265C4F3F6847F480374E
:1004B000DFF868C1CCF8007000E0491C574F3F6876
:1004C00007F400371FB947F6FF77B942F5D347F66F
:1004D000FF77B94201D101209EE0504F40373F687D
:1004E00047F08057DFF834C10CF1400CCCF80070B5
:1004F0004B4F3F6847F44047DFF824C1CCF8007009
:10050000464F3F1D3F6805F03F0C47EA0C07DFF8F8
:100510000CC10CF1040CCCF8007067463F6847EA48
:100520008417CCF8007067463F684FF0010CCCEBA5
:10053000520C47EA0C47DFF8E4C00CF1040CCCF88D
:10054000007067463F6847EA0367CCF8007067466B
:100550003F6847F48007CCF800700CF104073F684F
:100560000CF1040CCCF8007067463F6847F4A057C4
:10057000CCF8007067463F6847F40047CCF800703D
:10058000264F3F6847F08077DFF890C0CCF80070C6
:10059000002105E0491CB1F5001F01D3022005E050
:1005A0001E4F3F6807F00077002FF3D000BF1D4FAC
:1005B0003F6847F48077DFF86CC0CCF8007067467E
:1005C0003F6847F40077CCF8007067463F6847F40F
:1005D0008067CCF8007067463F6847F00507CCF8A5
:1005E00000700E4F08373F6847F00207DFF82CC055
:1005F0000CF1080CCCF8007000210AE0074F083716
:100600003F68C7F38106491CB1F5001F01D30420E0
:1006100001E0032EF2D100BFF0BD0000003802401F
:1006200000700040003C02404A0A52020243014B63
:100630001A60704708ED00E0F0B504460D46164616
:100640001F4601200B49086000200A490831086054
:10065000091F086007490C3108603B4632462946AD
:100660002046FFF71BFF00214FF00060FFF7DCFF83
:10067000F0BD0000003802404FF04070E1EE100A7B
:1006800070470000A4060008000000200C000000D5
:10069000C4010008B00600080C0000202C05000072
:1006A000E001000800000000000000000000000061
:040000050800018965
:00000001FF
