:020000040800F2
:1000000070040020A1010008AF010008B101000840
:10001000B3010008B5010008B701000800000000A6
:10002000000000000000000000000000B90100080E
:10003000BB01000800000000BD010008BF0100086E
:10004000C1010008C1010008C1010008C101000888
:10005000C1010008C1010008C1010008C101000878
:10006000C1010008C101000801020008C101000827
:10007000C1010008C1010008C1010008C101000858
:10008000C1010008C1010008C1010008C101000848
:10009000C1010008C1010008C1010008C101000838
:1000A000C1010008C1010008C1010008C101000828
:1000B000C1010008C1010008C1010008C101000818
:1000C000C1010008C1010008C1010008C101000808
:1000D000C101000841020008C1010008C101000877
:1000E000C1010008C1010008C1010008C1010008E8
:1000F000C1010008C1010008C1010008C1010008D8
:10010000C1010008C1010008C1010008C1010008C7
:10011000C1010008C1010008C1010008C1010008B7
:10012000C1010008C1010008C1010008C1010008A7
:10013000C1010008C1010008C1010008C101000897
:10014000C1010008C1010008C1010008C101000887
:10015000C1010008C1010008C1010008C101000877
:10016000C1010008C1010008C1010008C101000867
:10017000C1010008C1010008C10100080000000021
:10018000C1010008C1010008DFF810D000F026F816
:1001900000480047C1040008AFF30080700400204D
:1001A0000848016841F47001016007480047FEE714
:1001B000FEE7FEE7FEE7FEE7FEE7FEE7FEE7FEE717
:1001C000FEE7000088ED00E089010008421C10F8FD
:1001D000011B0029FBD1801A70470000064C074D17
:1001E00006E0E06840F0010394E807009847103407
:1001F000AC42F6D3FFF7CCFF140700083407000821
:1002000010B50848006840F01000064908600A2050
:1002100000F028F90448006900F0100008B900F067
:1002200005F810BD143C014000100240034800686E
:1002300080F4007001490860704700001414024007
:1002400000B51148006800F0200058B10E48406821
:100250000E490F4A127888540D480078401C0C490A
:10026000087010E00848006800F0100058B1064817
:1002700000680548406806480178044800F0C0F866
:1002800000200349087000BD001001400800002054
:100290000000002010B54E48006840F001004C49B5
:1002A00008604B481430006840F010004849143191
:1002B00008604848006820F4402046490860084625
:1002C000006840F4002008600846806820F4402060
:1002D00088600846806840F40020886008464068CE
:1002E00020F4007048600846C06820F44020C860D0
:1002F0000846C06840F48020C8600846406A40F064
:10030000700134484162006820F4401031490860AF
:100310000846006840F4001008600846C06820F4F1
:100320004010C8600846C06840F48010C8600846A5
:10033000406A40F4E0612748416240F2D9202649F2
:1003400088600020C86008610846C06840F0080066
:10035000C8600846C06840F00400C8600846C0682D
:1003600040F40050C8600846C06840F03000C860E3
:1003700003200246194B19684FF6FF031940184B2A
:100380000B4343EA0221154B196000BF25200221CF
:10039000002804DB0A07130E124A135407E00A0769
:1003A000140E0E4A0C3200F00F031B1FD45400BF72
:1003B0002520002809DB00F01F020121914042099D
:1003C000920002F1E022C2F8001100BF10BD00004F
:1003D0003038024000000240001001400CED00E007
:1003E0000000FA0500E400E000BF0449096801F0DC
:1003F00080010029F9D00149486070470010014090
:1004000010B503460C46002204E0985CFFF7ECFFB1
:10041000501CC2B2A242F8DB10BD02E008C8121F95
:1004200008C1002AFAD170477047002001E001C1DD
:10043000121F002AFBD170474FF0E021096941F0FB
:1004400004014FF0E0221161054908601146096975
:1004500041F0010111616FF070415161704700007E
:100460000400002010B504464FF47A7104FB01F03B
:1004700000F002F810BD000070B5034600224FF0F6
:10048000E02675690D4E366803FB06F44FF0E02652
:10049000B16910E04FF0E026B06988420BD0884285
:1004A00002D20E1A324402E02E1A0E4432440146A1
:1004B000A24200D300E0EDE700BF70BD04000020C1
:1004C0000723022208214FF4A87000F003F9A820A6
:1004D000FFF7B2FFFFF7DEFE6120FFF785FF742014
:1004E000FFF782FF0A20FFF77FFF0CA42046FFF7EB
:1004F0006DFEC5B229462046FFF782FF0DE00B488E
:100500000078012809D10A4801780A48FFF778FFE6
:1005100000200649087006490870F0E768656C6CB1
:100520006F772077726F6C640A0000000100002072
:100530000000002008000020F0B504460D46002110
:10054000002000265C4F3F6847F48037DFF868C121
:10055000CCF8007000E0491C574F3F6807F40037A3
:100560001FB947F6FF77B942F5D347F6FF77B9428F
:1005700001D101209EE0504F40373F6847F080573F
:10058000DFF834C10CF1400CCCF800704B4F3F68E1
:1005900047F44047DFF824C1CCF80070464F3F1DB8
:1005A0003F6805F03F0C47EA0C07DFF80CC10CF17F
:1005B000040CCCF8007067463F6847EA8417CCF813
:1005C000007067463F684FF0010CCCEB520C47EAD5
:1005D0000C47DFF8E4C00CF1040CCCF8007067465F
:1005E0003F6847EA0367CCF8007067463F6847F406
:1005F0008007CCF800700CF104073F680CF1040C84
:10060000CCF8007067463F6847F4A057CCF80070FC
:1006100067463F6847F40047CCF80070264F3F68B4
:1006200047F08077DFF890C0CCF80070002105E03B
:10063000491CB1F5001F01D3022005E01E4F3F68A1
:1006400007F00077002FF3D000BF1D4F3F6847F43D
:100650008077DFF86CC0CCF8007067463F6847F4DD
:100660000077CCF8007067463F6847F48067CCF8A5
:10067000007067463F6847F00507CCF800700E4FE2
:1006800008373F6847F00207DFF82CC00CF1080C70
:10069000CCF8007000210AE0074F08373F68C7F325
:1006A0008106491CB1F5001F01D3042001E0032E8F
:1006B000F2D100BFF0BD00000038024000700040E1
:1006C000003C02404A0A52020243014B1A60704742
:1006D00008ED00E0F0B504460D4616461F46012021
:1006E0000B49086000200A4908310860091F0860AA
:1006F00007490C3108603B46324629462046FFF741
:100700001BFF00214FF00060FFF7DCFFF0BD000091
:1007100000380240340700080000002008000000F4
:100720001A0400083C0700080800002068040000C4
:0C0730002A040008000000000000000087
:040000050800018965
:00000001FF
