:020000040800F2
:10000000D004002029020008370200083902000845
:100010003B0200083D0200083F020008000000000B
:100020000000000000000000000000004102000885
:1000300043020008000000004502000847020008D3
:100040004902000849020008490200084902000864
:100050004902000849020008490200084902000854
:100060004902000849020008250300084902000867
:100070004902000849020008490200084902000834
:100080004902000849020008490200084902000824
:100090004902000849020008490200084902000814
:1000A0004902000849020008490200084902000804
:1000B00049020008490200084902000849020008F4
:1000C00049020008490200084902000849020008E4
:1000D00049020008650300084902000849020008B7
:1000E00049020008490200084902000849020008C4
:1000F00049020008490200084902000849020008B4
:1001000049020008490200084902000849020008A3
:100110004902000849020008490200084902000893
:100120004902000849020008490200084902000883
:100130004902000849020008490200084902000873
:100140004902000849020008490200084902000863
:100150004902000849020008490200084902000853
:100160004902000849020008490200084902000843
:100170004902000849020008490200080000000086
:10018000490200084902000800F002F800F03CF8BB
:100190000AA090E8000C82448344AAF10107DA45E2
:1001A00001D100F031F8AFF2090EBAE80F0013F0F8
:1001B000010F18BFFB1A43F0010318474406000063
:1001C00064060000103A24BF78C878C1FAD85207F4
:1001D00024BF30C830C144BF04680C6070470000C1
:1001E0000023002400250026103A28BF78C1FBD840
:1001F000520728BF30C148BF0B6070471FB500F0E1
:10020000F9FA1FBD10B510BD00F052F81146FFF706
:10021000F5FF00F0D9F900F070F803B4FFF7F2FF32
:1002200003BC00F077F800000B48016841F470014E
:1002300001600A480047FEE7FEE7FEE7FEE7FEE74B
:10024000FEE7FEE7FEE7FEE7FEE70000044805499B
:10025000034A054B7047000088ED00E08901000863
:10026000D0000020D0040020D000002010B5431C96
:1002700002E010F8011B71B18107FAD14FF0013291
:1002800002C88C1A8C4314EAC211F9D0C01A0A06AB
:1002900003D0C01E10BDC01A10BD0A0401D0801EBC
:1002A00010BD0902FCD0401E10BD7047704770475A
:1002B000754600F02BF8AE4605006946534620F01F
:1002C0000700854618B020B5FFF7C0FFBDE8204005
:1002D0004FF000064FF000074FF000084FF0000B02
:1002E00021F00701AC46ACE8C009ACE8C009ACE8B5
:1002F000C009ACE8C0098D46704710B50446AFF39D
:1003000000802046BDE81040FFF787BF00487047D7
:100310006C00002001491820ABBEFEE72600020059
:100320007047000010B50848006840F0100006490A
:1003300008600A2000F01AF90448006900F0100073
:1003400008B900F005F810BD143C0140001002404F
:100350000348006880F4007001490860704700009D
:100360001414024000B51148006800F0200058B194
:100370000E4840680E490F4A127888540D4800789C
:10038000401C0C49087010E00848006800F010009C
:1003900058B1064800680548406806480178044896
:1003A00000F0C0F800200349087000BD00100140B3
:1003B000080000200000002010B54E48006840F002
:1003C00001004C4908604B481430006840F01000B0
:1003D0004849143108604848006820F440204649E4
:1003E00008600846006840F40020086008468068FD
:1003F00020F4402088600846806840F4002088602F
:100400000846406820F4007048600846C06820F440
:100410004020C8600846C06840F48020C860084694
:10042000406A40F0700134484162006820F4401096
:10043000314908600846006840F40010086008462A
:10044000C06820F44010C8600846C06840F48010BE
:10045000C8600846406A40F4E0612748416240F2C3
:10046000D920264988600020C86008610846C06815
:1004700040F00800C8600846C06840F00400C8604A
:100480000846C06840F40050C8600846C06840F0A4
:100490003000C86003200246194B19684FF6FF036D
:1004A0001940184B0B4343EA0221154B196000BF5A
:1004B00025200221002804DB0A07130E124A1354D8
:1004C00007E00A07140E0E4A0C3200F00F031B1F40
:1004D000D45400BF2520002809DB00F01F020121B1
:1004E00091404209920002F1E022C2F8001100BFDF
:1004F00010BD0000303802400000024000100140F2
:100500000CED00E00000FA0500E400E000BF044943
:10051000096801F080010029F9D00149486070475D
:100520000010014010B503460C46002204E0985C20
:10053000FFF7ECFF501CC2B2A242F8DB10BD000076
:100540004FF0E021096941F004014FF0E022116110
:10055000054908601146096941F0010111616FF018
:1005600070415161704700000400002010B504463E
:100570004FF47A7104FB01F000F002F810BD0000A6
:1005800070B5034600224FF0E02675690D4E3668BF
:1005900003FB06F44FF0E026B16910E04FF0E026CF
:1005A000B06988420BD0884202D20E1A324402E06F
:1005B0002E1A0E4432440146A24200D300E0EDE779
:1005C00000BF70BD040000200723022208214FF461
:1005D000A87000F0EFF8A820FFF7B2FFFFF7ECFEDD
:1005E0006120FFF793FF7420FFF790FF0A20FFF7C9
:1005F0008DFF05A42046FFF739FEC5B229462046E7
:10060000FFF790FF00BFFEE768656C6C6F7720779F
:10061000726F6C640A000000F0B504460D460021BC
:10062000002000265C4F3F6847F48037DFF868C140
:10063000CCF8007000E0491C574F3F6807F40037C2
:100640001FB947F6FF77B942F5D347F6FF77B942AE
:1006500001D101209EE0504F40373F6847F080575E
:10066000DFF834C10CF1400CCCF800704B4F3F6800
:1006700047F44047DFF824C1CCF80070464F3F1DD7
:100680003F6805F03F0C47EA0C07DFF80CC10CF19E
:10069000040CCCF8007067463F6847EA8417CCF832
:1006A000007067463F684FF0010CCCEB520C47EAF4
:1006B0000C47DFF8E4C00CF1040CCCF8007067467E
:1006C0003F6847EA0367CCF8007067463F6847F425
:1006D0008007CCF800700CF104073F680CF1040CA3
:1006E000CCF8007067463F6847F4A057CCF800701C
:1006F00067463F6847F40047CCF80070264F3F68D4
:1007000047F08077DFF890C0CCF80070002105E05A
:10071000491CB1F5001F01D3022005E01E4F3F68C0
:1007200007F00077002FF3D000BF1D4F3F6847F45C
:100730008077DFF86CC0CCF8007067463F6847F4FC
:100740000077CCF8007067463F6847F48067CCF8C4
:10075000007067463F6847F00507CCF800700E4F01
:1007600008373F6847F00207DFF82CC00CF1080C8F
:10077000CCF8007000210AE0074F08373F68C7F344
:100780008106491CB1F5001F01D3042001E0032EAE
:10079000F2D100BFF0BD0000003802400070004000
:1007A000003C02404A0A52020243014B1A60704761
:1007B00008ED00E0F0B504460D4616461F46012040
:1007C0000B49086000200A4908310860091F0860C9
:1007D00007490C3108603B46324629462046FFF760
:1007E0001BFF00214FF00060FFF7DCFFF0BD0000B1
:1007F000003802404FF04070E1EE100A70470000F0
:10080000200800080000002008000000C4010008C3
:100810002808000808000020C8040000E0010008C3
:080820000000000000000000D0
:040000050800018965
:00000001FF
